:020000040800F2
:1000000010100724710300089DA90008779D0008BF
:1000100055A90008A90D0008FDCC0008000000004B
:10002000000000000000000000000000B102000815
:10003000E9160008000000000D030008DDB4000808
:100040008B0300088B0300088B0300088B03000858
:100050008B0300088B0300088B0300088B03000848
:100060008B0300088B0300088B0300088B03000838
:100070006D1200088B030008891200088B0300082A
:100080008B0300088B0300088B030008B91E0008CF
:10009000C51E00088B0300088B0300088B030008B3
:1000A0008B0300088B0300088B0300088B030008F8
:1000B0008B0300088B0300088B0300088B030008E8
:1000C0008B0300088B0300088B0300088B030008D8
:1000D0008B030008A9CB0008B5CB00088B030008F0
:1000E0008B0300088B030008000000008B0300084E
:1000F0008B0300088B0300088B0300088B030008A8
:100100008B0300088B03000891B600088B030008DE
:1001100009C2000815C200089DB60008A9B600086B
:10012000A51200088B0300088B0300088B0300084E
:100130008B030008ED1600088B0300088B030008F2
:1001400000000000000000000000000000000000AF
:100150008B0300088B0300088B0300088B03000847
:100160008B0300088B0300088B0300088B03000837
:100170008B0300088B0300088B03000800000000BD
:100180008B0300088B0300088B0300088B03000817
:100190008B0300088B0300088B0300088B03000807
:1001A0008B0300088B0300088B0300088B030008F7
:1001B0008B0300088B0300088B0300088B030008E7
:1001C0008B0300088B0300088B0300088B030008D7
:1001D0008B0300088B0300088B0300088B030008C7
:1001E0008B0300088B0300088B0300088B030008B7
:1001F0008B0300088B0300088B0300088B030008A7
:100200008B0300088B0300088B0300088B03000896
:100210008B0300088B0300088B0300088B03000886
:100220008B0300088B0300088B030008000000000C
:100230008B0300088B030008000000008B030008FC
:100240008B0300088B0300088B0300088B03000856
:100250008B0300088B0300088B0300088B03000846
:100260008B0300088B0300088B0300088B03000836
:100270008B0300088B0300088B03000800000000BC
:100280008B0300088B0300088B03000800000000AC
:10029000000000008B030008DFF810D000F034FBF2
:1002A00000480047B10D0108AFF30080101007248B
:1002B0002C4B19680868B0E8F04F80F30988BFF349
:1002C0006F8F4FF0000080F311887047000000002E
:1002D00008480068006880F308884FF0000080F349
:1002E000148862B661B6BFF34F8FBFF36F8F00DF24
:1002F00000BF00BF08ED00E0DFF80C00016841F42A
:1003000070010160704700BF88ED00E0EFF30980E5
:10031000BFF36F8F134B1A681EF0100F08BF20ED4C
:10032000108A20E9F04F106009B44FF0500080F3BC
:100330001188BFF34F8FBFF36F8F15F0B3FC4FF0F1
:10034000000080F3118809BC19680868B0E8F04F14
:100350001EF0100F08BFB0EC108A80F30988BFF3BD
:100360006F8F704710010024EFF305807047000085
:100370000648804706480047FEE7FEE7FEE7FEE73F
:10038000FEE7FEE7FEE7FEE7FEE7FEE7B5B500089D
:10039000990200082DE9F05F0546002092469B4631
:1003A00088460646814640241BE02846414647468B
:1003B000224600F0A8F853465A46C01A914110D37D
:1003C00011461846224600F08FF82D1A67EB0108F7
:1003D0004F4622460120002100F086F817EB000965
:1003E0004E41201EA4F10104DFDC484631462A4676
:1003F0004346BDE8F09F0000004870474C6C010880
:100400000649074A0868504343F23902104408601D
:100410004008704701490860704700004802042402
:100420006D4EC64110B5431A934209D283188818FD
:1004300003E010F8011D03F8011D521EF9D210BD92
:1004400040EA01039B0703D009E008C9121F08C056
:10045000042AFAD203E011F8013B00F8013B521ED6
:10046000F9D210BDD2B201E000F8012B491EFBD237
:1004700070470022F6E710B513460A4604461946AF
:10048000FFF7F0FF204610BD30B5044600200346BC
:1004900000E05B1C934203D2E05CCD5C401BF8D0D3
:1004A00030BD70B506460CF017FD046805460A22FB
:1004B0000021304600F037F82C6070BD30B50B4697
:1004C000014600202022012409E021FA02F59D4284
:1004D00005D303FA02F5491B04FA02F52844151E58
:1004E000A2F10102F1DC30BD202A04DB203A00FA3F
:1004F00002F1002070479140C2F1200320FA03F37B
:10050000194390407047202A04DB203A21FA02F078
:100510000021704721FA02F3D040C2F1200291403D
:100520000843194670472DE9F04791460F4680462B
:100530000446002614F8015B2DB1FFF75DFF00684B
:10054000405DC007F6D12B2D02D02D2D18D0641E92
:100550004A463946204600F0FBF927B13968A142E6
:1005600001D1C7F8008071054FF002040BD540425D
:10057000002803DD0CF0B0FC0460A007BDE8F087A4
:1005800046F48066E4E70028F8DA0CF0A5FC046085
:100590006FF00040F2E72DE9FE4F804681EA03004C
:1005A000C00F0C46009021F0004123F00045B8EB4D
:1005B0000200A94105D24046214690461C460B4602
:1005C000024623F00040104347D0270DC7F30A002E
:1005D000C3F30A510290401A019040286BDAC3F32A
:1005E000130040F4801B0098924620B10023D2EB08
:1005F000030A63EB0B0B01985946C0F140025046C9
:10060000FFF772FF06460D4650465946019A00F024
:100610008DF910EB08006141002487EA115284EA49
:10062000E7731A4340D0009A62B3019A012A4FEA55
:10063000075215DC001B61EB02014FF0004202EA99
:100640000752CDE90042001C41F5801132462B468D
:1006500000F0DCF903B0BDE8F08F40462146F9E731
:10066000001B61EB0201001C41F5801300185B4187
:100670002018A2F5001747EB030140EAD570B61920
:100680006D4111E06D084FEA360645EAC0754FEA44
:100690000752001B61EB0201001C41F58011490863
:1006A0004FEA30000019514132462B4603B0BDE8F5
:1006B000F04F00F09CB90098012240000023D0EBDD
:1006C000020263EBE073009821464FEAE074B8EB56
:1006D000000061EB0401E9E783F000435BE781F090
:1006E000004158E72DE9FE4F81EA030404F000447D
:1006F00021F0004100944FF0000B23F0004350EA3A
:1007000001045ED052EA03045BD0C3F30A54C1F380
:100710000A552C44A4F2F3340194A0FB0254C1F313
:10072000130141F48011C3F3130343F4801301FB5D
:10073000024400FB034E840A970A44EA815447EAC4
:100740008357A4FB076802958D0A05FB07854FEACE
:10075000932C04FB0C542705029D4FEA065847EAE8
:100760001637B5EB08056EEB070C870E920E47EABD
:10077000811742EA8312A7FB0201B6EB0B0164EB7F
:1007800000042B0D43EA0C335E1844EB1C50DA4690
:100790005146E7FB0201C5F313044FEA0B3343EA6A
:1007A00014534FEA0432019C43EA0603A4F10C04FB
:1007B0000294009CCDE900B400F028F903B0BDE834
:1007C000F08F00200146F9E72DE9F04D81EA03049E
:1007D00004F0004B21F0004514464FF0000A23F0CE
:1007E000004150EA050220D054EA01021DD0C5F3B1
:1007F0000A570246C5F31303C1F31300C1F30A56A7
:1008000040F4801543F48013A7EB0608101BD6466E
:1008100008F2FD3873EB050002D308F1010801E08E
:1008200092185B41B8F1000F03DA00200146BDE8E1
:10083000F08D00204FF48011064684460EE0171B11
:1008400073EB050705D3121B63EB050306434CEA64
:10085000010C49084FEA300092185B4150EA010749
:10086000EDD152EA030012D082EA040083EA0501C6
:10087000084305D0101BAB4106D20122002306E03D
:1008800000224FF0004302E06FF0010253101AEB18
:1008900006004CEB085110EB0A0041EB0B01BDE8E0
:1008A000F04D00F0A4B8C1F30A52C1F3130140F2B5
:1008B000FF3341F480119A4202DA0020014670476A
:1008C00040F233439A42A2F2334202DC5242FFF733
:1008D0001ABEFFF709BE000030B5041E71F1000416
:1008E00004DB4FF00044404264EB0101141E73F13D
:1008F000000405DB1C464FF00043524263EB040347
:10090000994208BF904230BD064C074D06E0E068B2
:1009100040F0010394E8070098471034AC42F6D346
:10092000FFF7BEFCB06C0108E06C0108202A06DB72
:10093000CB17203A41FA02F043EAE07306E041FAAD
:1009400002F3D040C2F1200291400843194670479B
:100950002DE9F05F82460078002715468B460AF1A4
:100960000104B946302801D09DB113E014F8010B01
:100970000127782803D0582801D045B10AE00DB1ED
:10098000102D07D10027102514F8010B02E00825CF
:1009900000E00A250026B0460EE005FB080005FB36
:1009A00006F1012701EB10461FFA80F8B6F5803FEB
:1009B00000D3B94614F8010B294600F075F8002859
:1009C000EBDABBF1000F05D00FB1641E00E0544616
:1009D000CBF80040B9F1000F06D00CF07DFA0221EF
:1009E0000160C81EBDE8F09F48EA0640FAE710B56E
:1009F000141E73F1000408DA401C41F10001921842
:100A00005B411A4301D120F0010010BD2DE9F04DEA
:100A100092469B4611B1B1FA81F202E0B0FA80F23F
:100A200020329046FFF760FD04460F4640EA0A0078
:100A300041EA0B0153465A46084313D0114653EA84
:100A4000010019D0C8F140025046FFF75CFD054691
:100A50000E46504659464246FFF746FD084305D02C
:100A6000012004E020463946BDE8F08D0020054312
:100A700046EAE0762C4337430A986305E40AA0EB84
:100A800008000022FD0A44EA47540A3002D500203B
:100A90000146E9E7010510196941DDE9084500193A
:100AA0006941BDE8F04DA2E73A2800D2303820F085
:100AB0002002412A01D3A2F13700884201D34FF02E
:100AC000FF30704770B58C1810F8015B15F0070304
:100AD00001D110F8013B2A1106D110F8012B03E0D7
:100AE00010F8016B01F8016B5B1EF9D12B0705D4DF
:100AF0000023521E0DD401F8013BFAE710F8013B28
:100B0000CB1A921C03E013F8015B01F8015B521E43
:100B1000F9D5A142D8D3002070BD000070B53A4984
:100B200005460068884202D0384A904202D1D1F886
:100B3000080302E03648D0F8080310F4403F11D013
:100B400006F094FE04466868B0F5803F06D0B0F524
:100B5000003F03D0B0F5403F27D101E0000C18E082
:100B6000A40822E000214FF4002005F0E9FE04462D
:100B700068688103890B18D181140C2915D2DFE82C
:100B800001F0140606060606060B0D0F1113800C65
:100B90004000B4FBF0F408E0240906E0640904E036
:100BA000A40902E0E40900E0240A05F047FB41F251
:100BB0000301884208D8174884422868816813D8FE
:100BC00021F48071816070BD13496008884204D8A7
:100BD0002868816821F44071F4E71049884206D8FA
:100BE0002868816821F4407141F48071EAE70C497A
:100BF00088422868816804D821F4407141F400716A
:100C0000E0E741F44071DDE70020024000210240AE
:100C100000600258002D3101105E5F0020BCBE0054
:100C200040787D0170B50446007A0D461D2876D2C5
:100C3000DFE800F0750F24272A2D303336393C3F8A
:100C40004245484B4E5154575A5D606366696C6F1C
:100C500073006089012801D038B160E03B4800781A
:100C600001F058FA0AF0AEFB59E0284604F0F8F912
:100C700000286AD0BDE8704001F0F8B86089A8602B
:100C80004DE06089E8604AE0A07A287447E0A07AE5
:100C9000687444E0A07AA87441E0608968613EE02D
:100CA0006089A8613BE06089E86138E0608928627A
:100CB00035E06089686232E06089A8622FE060896F
:100CC000E8622CE06089286329E06089686326E097
:100CD0006089A86323E06089E86320E06089286474
:100CE0001DE0608968641AE06089A86417E0608983
:100CF000E86414E06089286511E0608968650EE0A9
:100D00006089A8650BE06089E86508E0608928666D
:100D100005E060890004686601E06089A8662089B2
:100D20001D2812D1608901280FD1284604F098F9B6
:100D300008B101F09BF8284604F070FC08B101F0FE
:100D400095F8BDE870400AF03DBB70BD000200247C
:100D500013B500980288A2F54073FE3B10D0A2F5AF
:100D60004073FD3B0CD00E4B5A18147934B11179F5
:100D700081808AB201210AF051F804E01A6822B198
:100D8000818000F045F800201CBD002181800548CD
:100D9000D0F804080B460A46694615F09DF9F2E7BB
:100DA000A01D042470200424FEE7F0B5044605AF1E
:100DB000DDE9085097E840501227048081800381C4
:100DC0004681A0F80CC0A0F80EE0C27105824780F1
:100DD000F0BD00001CB5074A0523141D10705170AA
:100DE00005A1CDE90034094813464FF4007215F00F
:100DF00007FC1CBDCC010024534156455F434F4EB8
:100E00004649475F444154410000000089AC000856
:100E10002DE9F84F81780446C01DC91F0CF0A2FDD2
:100E2000A179814203D04FF0FF30BDE8F88FE0791F
:100E30000127FD4D0026142871D2FC4B4FF6FF729E
:100E4000DFF8EC934FF0FF0CFA49DFF8ECA367D220
:100E5000DFE800F06696A7B70A1E364D677BF96695
:100E6000F3F2F1FCCAE1EFEE2088D5F804118842D4
:100E700006D0E089D5F80411884201D090424FD1C4
:100E8000208A012801D0286870E02089286008E0C5
:100E9000208A012808D120896189884204D1C5F8B7
:100EA00004010AF08FFA02E0D5F804015EE0D5F8FB
:100EB0000401002100F580602080A2882046A7E080
:100EC000D5F804312046E189994201D09142D6D12A
:100ED000018A012902D0D5F8081115E08168BCEB20
:100EE000116F03D00029FCD0C5F8081162E1D5F8D4
:100EF00004312046E189994201D09142BFD1018A53
:100F0000012903D0D5F80C11816053E18168BCEB55
:100F1000116FEBD00029E9D0C5F80C114AE15BE173
:100F200012E0D5F804312046E189994201D091427E
:100F3000A5D1018A012902D0D5F8101164E02089D9
:100F4000002801D0C5F810015EE12088D5F8041111
:100F5000884206D0E089D5F80411884201D0904239
:100F6000F2D1208A012803D0D5F8140120819EE710
:100F7000208900289BD0C5F814010BF05DFE96E790
:100F80002088D5F804C1604506D0E089D5F8045121
:100F9000A84201D09042D7D11E602079C8700F714D
:100FA00032E12088D5F80431984206D0E089D5F89E
:100FB0000431984201D09042C6D1207908704F7018
:100FC00022E121882046D5F80431994206D0C18912
:100FD000D5F80431994201D091421BD10781468155
:100FE0008681C6810782E5E0218A2046012909D150
:100FF000018911B1012903D004E0C5F8386101E08D
:10100000C5F83871D5F838110181D3E08288002104
:1010100009F004FFF8E089488849083106600E604D
:10102000D5F8380150B1D5F83801012808D00AE0C8
:1010300073E060E00AE034E03CE051E0804800E02A
:1010400080480DF097FD05F045FADDE02289204645
:1010500012B1012A02D002E08E7100E08F71027994
:10106000CA7101220096438903E0009C1444009455
:10107000521C9342F9DADAF800C0009C644503D1AF
:10108000CAF800304F7109E0D5F8041101F580610C
:10109000018007810021828809F0C0FE89F8006084
:1010A000B2E099F80000012819D1204609F054FC5B
:1010B0002781FCE62681D5F80401002100F5806037
:1010C0002080A288204609F0A9FE5F4806605F489C
:1010D000CAF8006006605E48066089F8007093E018
:1010E000D5F804318021204603F5806323802781D1
:1010F000618122828AE7218A2046012906D0D5F81B
:1011000030118160D5F83411C16053E08168C5F8B1
:101110003011C168C5F834114CE094F808C00222BF
:1011200020461CF0FF0C09D0BCF1010F3DD0BCF1F2
:10113000030F45D0BCF1040F66D147E02069D5F814
:101140003031834260D16069D5F8343183425BD15C
:10115000E089D5F80431834256D1D5F8300118B36F
:10116000D5F83001401C4FD0E069D5F808318342F2
:101170000ED1A369D5F80C619E4209D1236AD5F836
:1011800010619E4204D1A389D5F814619E423BD0E0
:10119000C5F80801A069C5F80C01206AC5F810015E
:1011A000A089C5F814014A702EE04189A1F590523A
:1011B000343A29D1D5F8041101F58061018025E781
:1011C000608908B11F601FE01E601DE0608908B1E2
:1011D0008F6019E08A6017E0204609F0D1FF0028EF
:1011E0003FF423AE20460AF0EFFD0028F8D0204659
:1011F00001F000F80028F3D0204601F099F900280A
:10120000EED0E079142801D000200EE6208ADFF825
:101210004480012827D121890F48002941461DD04B
:101220000F6001221CE00000A01D042480010024A6
:10123000240204248C6904241402042400F00724EA
:101240000000040800000A080C0204242002042400
:101250001002042478010024001402580E600022B9
:10126000012104F0E6FFD8F800007FE604480549B4
:101270000088C0EB001001EBC000783802F0DEB946
:10128000F201002498B30424044805490088C0EB07
:10129000001001EBC000783802F0D0B9F201002450
:1012A00098B30424014802F0C9B90000409A04240C
:1012B000294A016891423AD0274A1832914236D0E1
:1012C000254A3032914232D0234A483291422ED0C0
:1012D000214A603291422AD01F4A7832914226D068
:1012E0001D4A9032914222D01B4AA83291421ED010
:1012F0001A4A91421BD0194A1832914217D0174A04
:101300003032914213D0154A483291420FD0134ADD
:10131000603291420BD0114A7832914207D00F4A85
:101320009032914203D00D4AA832914211D1CAB2F3
:101330001823103AB2FBF3F26FF30901032A02F00B
:101340000703074AD25CC26500D9091D81650846BA
:10135000704721F0FF01F9E710000240100402403D
:10136000746A010830B5224A012301689142CAB269
:101370001BD01F4C1434A14217D01D4C2834A1425D
:1013800013D01B4C3C34A1420FD0194C5034A14215
:101390000BD0174C6434A14207D0154C7834A142CD
:1013A00003D0134C8C34A1420CD11421114C083AB7
:1013B000B2FBF1F10F4A803201F01F0504EB81010D
:1013C000AB4010E00C4D1824103A0D44B2FBF4F180
:1013D000A82D00D80831094A01F01F0402EB810151
:1013E000064AA3408032603080E80E0030BD000025
:1013F0000854025800580258F0FBFDBF0008024094
:1014000010B50279531E072B2DD8174C0168A14245
:101410001BD0154C1434A14217D0134C2834A142D0
:1014200013D0114C3C34A1420FD00F4C5034A14288
:101430000BD00D4C6434A14207D00B4C7834A14240
:1014400003D0094C8C34A14203D10849074C4431E4
:1014500002E00749064C443104EB8202C0E91B213B
:1014600001219940416710BD08540258FC580258A8
:10147000FC08024010B583694FF0C074826A0146CF
:10148000002053B1B3F5005F15D072B1012A0CD022
:10149000022A0AD0032A09D104E01AB1012A06D08F
:1014A000022A03D1C96AC90100D5012010BDC96A49
:1014B000A142FAD010BD002AF7D0012AF2D0022AA8
:1014C000F3D0032AF3D010BD2DE9F04F804E804FAA
:1014D000DFF8FC911836DFF8F8A148370468856D0D
:1014E0000AF1300ADFF8ECB14C45DFF8ECC1DFF867
:1014F000ECE16DD0B4426BD0544569D0BC4267D0AA
:10150000DFF8D081A8F11808444561D05C455FD070
:1015100064455DD074455BD0DFF8C481444557D045
:10152000DFF8BC8108F11808444551D0DFF8B081DC
:1015300008F1300844454BD0DFF8A48108F1480891
:10154000444545D0DFF8988108F1600844453FD014
:10155000DFF88C8108F17808444539D0DFF88081C4
:1015600008F19008444533D0DFF8748108F1A808E9
:1015700044452DD0DFF86C81444529D0DFF86481E3
:1015800008F11408444523D0DFF8588108F12808F1
:1015900044451DD0DFF84C8108F13C08444517D084
:1015A000DFF8408108F15008444511D0DFF834815C
:1015B00008F1640844450BD0DFF8288108F1780869
:1015C000444505D0DFF81C8108F18C08444509D159
:1015D000D0E91948C4F80480C46E1CB1D0E91C4895
:1015E000C4F8048004684C452ED0B4422CD0544535
:1015F0002AD0BC4228D0374E183EB44224D05C4595
:1016000022D0644520D074451ED0354EB4421BD044
:10161000334E1836B44217D0314E3036B44213D060
:101620002F4E4836B4420FD02D4E6036B4420BD008
:101630002B4E7836B44207D0294E9036B44203D0B0
:10164000274EA836B44215D190F85C603F2406F0CE
:101650001F06B440AC600468256825F48025256029
:101660002EE09A600068C160BDE8F08F9960006864
:10167000C260F9E71B4EB4421BD01A4E1436B44276
:1016800017D0184E2836B44213D0164E3C36B4420A
:101690000FD0144E5036B4420BD0124E6436B442C2
:1016A00007D0104E7836B44203D00E4E8C36B4427A
:1016B000DAD190F85C60012406F01F06B4406C603B
:1016C000046863608368402B0368CFD1C9E70000DA
:1016D0001000024088000240A0000240B800024012
:1016E000100402400854025870470000014802F0FC
:1016F00045BF00007410042470B5A2B00646002453
:101700004FF4C36001258DF80F5002238DF81D4062
:1017100069038DF80E5009948DF81F400D9020201C
:101720008DF804508DF8325042028DF860500691C9
:101730004FF040518DF8384002948DF861408DF89B
:101740001C408DF828408DF862408DF80C400B94B9
:101750008DF81E500F948DF8115012948DF8404062
:101760008DF831408DF8124014948DF85640179042
:10177000304616938DF8205005928DF854408DF820
:1017800030408DF81050009169468DF80D408DF86D
:10179000554011948DF84C5000F04CFA1B9568059B
:1017A0008DF871404FF406718DF8685019948DF8DA
:1017B00080408DF870401F908DF878401D90304625
:1017C0008DF88140219119A900F0DAF922B070BD9D
:1017D0000020704704F038BD024810B503F0E4F96A
:1017E000002010BD7410042413460A460146044824
:1017F00010B503F029F9002801D04FF0FF3010BDDB
:101800007410042413460A460146044810B503F038
:10181000CFFA002801D04FF0FF3010BD741004241F
:101820002DE9F04F836A00F1180593468C68002774
:101830001E46B94655F82320D2F80CC0BCF1000F63
:101840007EDB05EB830CDCF814C0BCF1000F77D114
:1018500091F800C05FEA4C7C43D5D2F80CC0D1F8B7
:1018600024806FF30F0C4CEA080CC2F80CC0D2F8BD
:101870000CC04CF4803CC2F80CC0D0F800C0DCF8BE
:10188000608048F48018CCF8608091F800C05FEA6E
:101890000C7C26D5B1F82C80D2F808C068F31F4C18
:1018A000C2F808C0D2F80CC04CF4003CC2F80CC01E
:1018B000D2F80CC0D1F830802CF4402C4CEA080C43
:1018C000C2F80CC0D0F800C0DCF8648048F480187E
:1018D000CCF864800068D0F850C04CF0806CC0F840
:1018E00050C00878C0060BD59068D1F818C06FF3C7
:1018F0000D0040EA0C009060D06840F08060D0603D
:10190000087810F0140F1ED0D06840F08040D060EE
:10191000BFF35F8FD0685B1C042B40F00040D060A9
:1019200000D31B1F012755F82320D06800280ADAAE
:1019300055F82600BFF35F8FC16821F0004100E039
:10194000A3E0C160A1E0206810609068D4F804C0F2
:101950006FF30D0040EA0C009060DFF820827F1CDE
:10196000A0684FF0000A50B1044600685060D2F8F9
:1019700008C0A0880CEA080C4CEA004004E0C2F859
:1019800004A0906800EA080090600878C006D0685B
:1019900012D5B1F820C020F4F00040EACC40D0606D
:1019A000D068D1F81CC06FF3110040EA0C00D06081
:1019B000D06840F480201BE0D1F804C06FF30E0023
:1019C00040EA0C00D0600878C00707D0D068D1F892
:1019D00014C020F4403040EA0C00D0600878800643
:1019E00007D5D068D1F810C020F0406040EA0C0064
:1019F000D0600878400707D59068D1F828C020F457
:101A0000404040EA0C009060D06840F00050D06048
:101A1000D06820F08040D060BFF35F8FD06840F086
:101A20000040D060087880077ED5D068D1F80CC01F
:101A300020F0607040EA0C007AE0D0685B1C042B58
:101A400020F08050D06000D31B1F55F82320D068B1
:101A500020F00050D060D068002803DB05EB830045
:101A60004069A8B155F8261000200CE0BFF35F8F45
:101A7000CA68761C042E22F00042CA6000D3361FCA
:101A8000401C55F82610B842F0D30220BDE8F08F74
:101A9000A468206810609068D4F804C06FF30D004B
:101AA00040EA0C009060A0687F1C58B104460068B2
:101AB0005060D2F808C0A0880CEA080C4CEA00403C
:101AC000906007E0C2F804A0D2F808C00CEA080C45
:101AD000C2F808C00878C006D0680AD5D1F81CC082
:101AE0006FF3110040EA0C00D060D06840F4802011
:101AF00010E0D1F804C06FF30E0040EA0C00D06093
:101B00000878C00707D0D068D1F814C020F440305E
:101B100040EA0C00D06009F10109BFF35F8FD06883
:101B200040F00040D06000E003E0D06820F080404A
:101B3000D060A068002880D19068BBF1000F02D06F
:101B400040F0004001E020F000409060D06840F09C
:101B50008050D06005EB8300696A4161EFF310802B
:101B6000012181F310882B6109F10101AA6A114456
:101B700080F310880020A96288E70000FFFF00C002
:101B8000F0B5026847F6020E274E4DF2010702F546
:101B90008052264DD1F800C01368254C23EA0E036D
:101BA00043EA0C0313600B79026891F80CE002F52C
:101BB0008052D1F808C01B0343EACE3343EA0C033A
:101BC000D2F804C02CEA070C4CEA030CC2F804C09B
:101BD00002684F7B02F580520B6A43EA0747D2F84E
:101BE000003133403B43C2F8003102680B7D02F5FF
:101BF000805291F81DC00F69D2F804611B0143EABD
:101C00000C332E403B431E43C2F8046100680B7F37
:101C100000F580508A69D0F8081142EAC372214069
:101C20001143C0F80811F0BD00C0FEFFEFEFC0FF88
:101C3000FFFFC07FF0B50B790C7B0F688A68DB066D
:101C40004D7B43EAC4533A438E7B1A43CF7B91F8D2
:101C500010C042EA855242EA4652BCF1000F42EA05
:101C600007537CD000224C7C002C43EAC24278D03F
:101C700000238E7C0D7F42EA43428F7FD1E90534F9
:101C800042EA06424E7F1A43224342EA0532002FBF
:101C900042EAC62466D00022CD7F91F8203044EA83
:101CA0008222002B42EA45227ED0002504684B6A3E
:101CB00042EA052291F82870464D1A43CE6A2368FD
:101CC00042EA071232432B401343236091F83C2031
:101CD00091F8383091F8305091F83140520642EA8C
:101CE000036291F8326042EA854242EA4444BEB35C
:101CF00000220368384E4F6B44EA02425C683A4364
:101D000040F20F15344014435C60036891F8406062
:101D10004C6CDA6844EA0624AA432243DA6091F85C
:101D200054300A6D91F84C4042EA4302ECB300246F
:101D30000368B1F848504FF60D76E7011C6F47EA8B
:101D400005452A43344014431C67026891F8563015
:101D500091F8555052F8904F43EA450303E02BE0C9
:101D600032E02BE02CE024F003041C4314600268F2
:101D70008C6DD2F8003D23F072032343C2F8003D7E
:101D800091F86020CC6D1AB35FF00003026891F8FF
:101D9000615091F8621044EA8310D2F8303D2C0172
:101DA00044EAC101084301E00CE00FE023F07B01AD
:101DB0000143C2F8301DF0BD012254E7012358E76A
:101DC000012269E7012571E7012292E70124AFE7CB
:101DD0000123DBE7838004000080F8C02DE9F84F81
:101DE00004464FF00108002000904FF04149D4E92B
:101DF0001A574FF0014A04EB8500866C1CE03069ED
:101E000030B9684602F082FE009840B1306130601F
:101E1000B8F1000F10D0A06D20B1484603E04FF09C
:101E2000000809E05046F0606D1C042D00D32D1F02
:101E30007F1E04EB8500866C17B1B8F1000FDED170
:101E4000E06EB84210D0E81C00F00300BFF35F8FD3
:101E5000216800EB4000226901F5805102EBC000CF
:101E6000C1F82801C4E91A57BDE8F88F72B6FEE739
:101E7000002200F001B800000E4B70B505465C7AF8
:101E80000120002C14D15E7A03F108009C555E7A83
:101E900003EB860675605D7A2A54587A421C5A72A2
:101EA0003A232F22303008704B7020468A70CC7055
:101EB00070BD000004F00624014803F01FBA0000C2
:101EC000C80D0424014803F019BA0000680E042468
:101ED000F0B503684FF6FC716D4C426BD3F884503B
:101EE0008D4345EA8205C3F88450036853F8845F44
:101EF000068F25F47F0545EA06451D60836B654D19
:101F00009F180268D2F888308B4343EA8703C2F8EF
:101F10008830026852F8883F868F23F4FE0343EA34
:101F200006431360066856F8A03FC26B8B4307EB6D
:101F3000420243EA82033360076857F8A03FB0F8D3
:101F4000406023F4FE0343EA06433B60D0E91036C9
:101F500003FB06220368D3F8B0608E4346EA82068C
:101F6000C3F8B0600368B0F84860D3F8B07027F4E5
:101F7000FE0747EA0646C3F8B060D0E91267036877
:101F800006FB0722D3F8AC608E4346EA8206C3F80C
:101F9000AC60D0E91467036806FB0722D3F8F06051
:101FA0008E4346EA8206C3F8F0600368B0F85860D2
:101FB000D3F8F07027F47C1747EA0646C3F8F060C0
:101FC0000368876D53F8C06F02EB47028E4346EA01
:101FD000820119600168B0F85C20D1F8C03023F4A8
:101FE0007C1343EA0242C1F8C020016890F86020E7
:101FF000D1F8C03023F07C5343EA0262C1F8C0201C
:10200000416B04EB8101C166826B01EB82020267C6
:10201000C36B02EBC3024267D0E91034634302EBA7
:1020200083028267D0E91234634302EB8302C26702
:10203000D0E91434634302EB8302C0F88020836D3F
:1020400002EBC303C0F88430C46D826E544303EBCB
:102050008403C0F88830046E544303EB8402C0F854
:102060009020AA420AD9D0F89C20032142F02002F5
:10207000C0F89C2080F898100120F0BD002200E0FC
:1020800004C1D0F890308B42FAD80020F0BD000097
:1020900000AC0040FCD30040F0B58E680C69D1E97B
:1020A000005744EA0604DFB145F080452C43866EB4
:1020B000D1E906C54F695E4391F8203045EA0C0529
:1020C000B1F80CC0D0F884E0002047EA0363104F59
:1020D0001D430EEB860345EA0C45E3E8024511E09B
:1020E00044EA8544E3E71418155CA67894F803C025
:1020F00094F801E0360445EA0C6446EA0E252C43C8
:10210000001D10C3CC683C5D8442ECD8F0BD0000DB
:102110007C6A01082DE9F04701284FF000014FF4D7
:1021200040764FF001044FF009054FF01E0C4FF0C0
:1021300004024FF00F084FF020094FF012034FF048
:10214000100A2BD002284AD12748264F076000F1F9
:102150001407C0E9026104744FF4A06641748174ED
:1021600087E83010C0F82C800562C0E90942C0E958
:102170000C268263C0E91131C0E91331C0E9153181
:10218000C0E9171AC0E91913C0E90F2903F046FA8C
:10219000002824D0BDE8F047FFF768BE1448134F6D
:1021A000076000F11407C0E902610474417481748E
:1021B00087E83010C0F82C800562C0E90942C0E908
:1021C0000C218263C0E91131C0E91331C0E9153136
:1021D000C0E9171AC0E91913C0E90F29D6E7BDE80D
:1021E000F087000000A40040680E042400A0004016
:1021F000C80D042410B5C1794FF0FF3318290DD153
:1022000001890B4A29B94189012901D0022905D147
:1022100011701178012903D0022903D0184610BD8E
:10222000044900E00449FEF7FDFC002010BD000059
:1022300000020024C80D0424680E042430B5842450
:102240000D4BCD0744EA002007D0DC6824F4E66497
:10225000DC60DC6814430443DC6089070BD5D3F8E9
:102260000C1121F4E661C3F80C11D3F80C111143E1
:102270000143C3F80C1130BD00200052CB431D4A6E
:102280009B0720D0CB070AD0D36823F03003D3605C
:10229000D3680343D360D36843F08803D3608907CE
:1022A00010D5D2F80C1121F03001C2F80C11D2F87F
:1022B0000C110143C2F80C11D2F80C0140F0880057
:1022C000C2F80C017047D16821F03001D160D2F81A
:1022D0000C1121F03001C2F80C11D1680143D1601A
:1022E000D2F80C110143C2F80C11906940F01000B3
:1022F00090617047002000522DE9F04704250E46FA
:10230000804603F0A1FF022E814600D1274DDFF861
:10231000A0A0284C05EA0A0777B3D4F8100125EAF3
:1023200000004000D0B1012E2AD02349D4F810017A
:10233000084040F00040410026D020498A6910EA58
:102340000A0F42EA00028A6101D1606103E020F0D5
:102350000040C4F814010120BDE8F087B8F1FF3F48
:10236000DAD003F071FFA0EB0901414502D8B8F1C2
:10237000000FD1D10320EFE7206925EA0000D1E763
:102380000F4920690840D6E7012E4FF4803007D06E
:10239000D4F81011C90301D5C4F814010020DBE7FB
:1023A0002169C903FAD56061F8E7000004000080E4
:1023B000F0FF10E0002000520000EE97D419042432
:1023C0000000EE170B460146184613F033B9000023
:1023D0001C4900B585B0D1F80411082201F58061CF
:1023E000ADF800101221ADF802104178ADF80410DC
:1023F0000F218DF807100021ADF808101249496827
:10240000B2EB116F18D111490078496801F01F0231
:102410008A1A203210B1012803D007E00C490123A9
:1024200001E00C490123084800F03EF8BDF8042003
:102430000021684608F0F2FC002013F025FB05B0EF
:1024400000BD0000A01D042408020024080204248A
:102450000000040800000A080346114830B585B0A2
:102460000C46D0F804214FF6FF700E4902F5806249
:1024700095B202220D8001900290CDE903010090F7
:1024800028462178FEF791FC22780021054808F0C3
:10249000C5FC05B01420BDE8304013F0CFBA0000F1
:1024A000A01D0424940100242DE9F0411F46164686
:1024B0000D468046C80634D103F0C6FC284600F01D
:1024C00071F8194C2060A819064600F06BF82268D4
:1024D000014616484FF0200C891A491C6160002300
:1024E000C0F810C0C0E90221C0E9003704F10801BA
:1024F00003F0A8FB08B107F03EFC2C4609E0611B85
:1025000001EB08022146012003F03EFC38B107F040
:1025100032FCA642F3D8BDE8F04103F01DBC2034E4
:10252000F7E7BDE8F0810000B801002478690424D1
:1025300010B5C17986B00446192905D01A2918D0DA
:102540004FF0FF3006B010BD14216846FDF791FF33
:102550001422684604F10801FDF764FF206A694609
:1025600003F04CFD00990122206A89B203F061FE5C
:1025700014E0207A90B9A189206989B203F054FE51
:1025800000B1012060720648D0F80401002100F576
:1025900080602080A288204608F040FC0020D1E71F
:1025A000A01D04240721A0F100634FF400329342E0
:1025B00003D3A0F10163934201D200213AE01E4B04
:1025C0000344934203D31D4B0344934201D20121A0
:1025D00030E01B4B0344934203D31A4B0344934212
:1025E00001D2022126E0184B0344934203D3174B38
:1025F0000344934201D203211CE0154B0344934250
:1026000003D3144B0344934201D2042112E0124B32
:102610000344934203D3114B0344934201D2052157
:1026200008E00F4B0344934203D30E4B0344934201
:1026300000D20621084670470000FEF70000EEF7C2
:102640000000FCF70000ECF70000FAF70000EAF7E2
:102650000000F8F70000E8F70000F6F70000E6F7E2
:102660000000F4F70000E4F72DE9F0470F4690F87A
:1026700050109AB0044601294FF0000915D00026E9
:10268000DFF8F880012084F850001596169621682E
:1026900041450ED13A4D0095284607F007FC824689
:1026A000206807F003FC60B10EE002201AB0BDE81C
:1026B000F087606D84F8506040F020006065012074
:1026C000F4E7BAF1000F09D0616D4FF0010941F054
:1026D00020006065484684F85060E7E7206841467E
:1026E000884201D0A84201D1264800E0264840F6A1
:1026F0001F72D7F800C0254BBCF1000F23D0D0F8D3
:1027000008C0D7F804802CF4404C4CEA080CC0F800
:1027100008C0D4F800C08C4501D0AC4507D1896809
:10272000AB6801F0010103F00103194302E099686D
:1027300001F001010029CDD1BD68396883682943C2
:102740009343194317E0876827F440478760276859
:102750008F4201D0AF4207D18968AB6801F0010117
:1027600003F00103194302E0996801F00101002917
:10277000B0D1816891438160ACE700000020024045
:10278000002102400023024000630258006002580A
:102790002DE9F84F0446EB4E0020DFF8ACB3009073
:1027A000002794F850000D46DFF8A0A3012808D0B8
:1027B0004FF0010984F85090206807F073FB18B1BE
:1027C00071E10220BDE8F88F286800280EDB21683F
:1027D0000303CA6928D090FAA0F0B0FA80F000BFD5
:1027E00000F01F0309FA03F00243CA61D5E90012A1
:1027F0004FF00C0C20681F23C1F384610CEA921C7B
:1028000002F01F02604493409140026B9A430A43D6
:102810000263206807F046FB8046206807F03EFB15
:1028200058EA000003D08DE0C0F38460D8E72A683E
:10283000042320684FF0070CA96803EAD253184418
:102840004369C2F304520CFA02FC914023EA0C03E0
:102850000B434361BE490968B9EB117F06D121687A
:102860006869C968C1F38201490008E02068C1684D
:10287000C906C1686869F5D501F0100149088840AA
:10288000296904292ED023682A6803EB810102F00C
:10289000F8420B6E024303F0004010430866697E65
:1028A00022682869012917D05FF0000102EB80003F
:1028B000026E22F000420A430266297E20682A69DD
:1028C00001290CD00021036902F01F02914023F47A
:1028D000F0420A43026135E04FF00041E6E74FF471
:1028E0000061F0E720682978026E02F0F842B2EB4E
:1028F000816F03D1016E21F00041016620682978C3
:10290000426E02F0F842B2EB816F03D1416E21F0CA
:102910000041416620682978826E02F0F842B2EBED
:10292000816F03D1816E21F0004181662068297892
:10293000C26E02F0F842B2EB816F03D1C16E21F09A
:102940000041C1662068816811F0010F72D150F812
:10295000C03F2A7BDFF8FCC1296802F018022CFA7C
:1029600002FCC1F3130823EA08030CEA010C43EA52
:102970000C030360E96859456CD177482268DFF899
:10298000DCC1DFF8DCB18242DFF8D8E17648774B72
:10299000DFF8DC8122D12968614524D0B1EB4C0CF1
:1029A00038D0A1F1496CBCF1080C35D0A1F1865C9E
:1029B000BCF1100C32D0DFF8BCC1614528D07145A4
:1029C0003AD0814230D0994232D06B48814201D115
:1029D0006A4831E041452ED169482DE0B2422AD102
:1029E0002968614501D1012026E0A1F1066CBCF106
:1029F000040C0FD0A1F1496CBCF1080C0CD0A1F172
:102A0000865CBCF1100C09D0DFF868C1614507D1C4
:102A10005C4811E058460FE05B480DE05B480BE076
:102A2000714509D0814201D1184605E09942D1D1C2
:102A3000574801E03CE00020D16903031AD090FA26
:102A4000A0F0B0FA80F000BF00F01F0309FA03F015
:102A50000143D161D5F800C0BCF1000F28DA3E4B2C
:102A600020684C49DFF83091984201D0B04203D140
:102A70000A4602E0800EE7E74A469268984202F072
:102A8000E07201D0B04209D19D68D6F8088005F007
:102A9000010508F0010845EA080503E0DAF80850E6
:102AA00005F001054DB1606D012740F02000606523
:102AB000002084F85000384684E6384DAC451CD1DF
:102AC00015021AD45045F3D1984202D0B04200D03A
:102AD00049468B6842F4000023F0E07202438A60AA
:102AE00030492F480968B1FBF0F04000801C00E03D
:102AF000401E00900028FBD1DAE72B4DAC450CD1ED
:102B0000D5010AD45045D3D1984202D0B04200D06A
:102B100049468B6842F080700EE0244DAC45C7D129
:102B20005502C5D45045C3D1984202D0B04200D01E
:102B300049468B6842F4800023F0E07202438A60C9
:102B4000B6E70000002102400000FF470060025885
:102B50000010005CFFFF0F00002002400200300464
:102B6000400020190004002A0008302E00106032B6
:102B70000000844B2000F014000021430000524765
:102B80000000B84F0002B0258000501D00018021D8
:102B9000002090360023024000630258000084CBDE
:102BA000400D0300B4000024000052C70000B8CF5D
:102BB000F8B54FF0000604003546009602D0606D6F
:102BC00010B107E00120F8BD204600F005F9A66528
:102BD00084F8506020688168C1F3407119B1816840
:102BE000704A1140816020688168C1F3007181B929
:102BF00081686D4A114041F0805181606C496B4899
:102C00000968B1FBF0F0401C00E0401E0090002875
:102C1000FBD120688168C1F3007141B9616D012564
:102C200041F010016165A16D41F00101A16507F05E
:102C300039F9616DC90600D420B1606D012540F0FD
:102C4000100093E0606D20F4807040F00200606539
:102C50002068816811F0010F1FD1564A564B9042EF
:102C600001D0984207D191689E6801F0010106F0F9
:102C70000106314303E05149896801F0010161B95E
:102C8000904201D0984201D14D4800E04D48826801
:102C9000616822F47C120A43826003F0CFFA41F2A9
:102CA0000301884202D9A06810280CD0617D227FE0
:102CB000A368206B490341EA024118430843217F7E
:102CC00001290CD010E0607D227F216B400340EA97
:102CD000024241F01000104340F00C00EFE7218C5D
:102CE000394A02EB41410843616A29B1A26A01F401
:102CF0007871014342EA01002168344BCA681A40E6
:102D00000243CA60206807F0CDF80646206807F045
:102D1000C5F830431DD1216844F20303267DE26AE1
:102D2000C86842EA863298431043C86094F8380075
:102D300001281ED02068016921F00101016120688D
:102D4000626B016921F07041114301612046FDF77A
:102D5000E5FEE068012820681CD0016B21F00F011E
:102D60000163606D20F0020040F0010060652846BC
:102D7000F8BD2068A28F164FD4E9101C154E07EB42
:102D80000247A36C026941EA0C013B4332401943FC
:102D90001143D3E7A269016B521E21F00F011143C9
:102DA000DEE70000C0FFFF5FC0FFFF7F400D0300B4
:102DB000B4000024002002400021024000600258BC
:102DC00000230240006302580000FEFF03C0F0FF32
:102DD0000100FFFF1EF800FC70B5B6B004461421D8
:102DE00030A8FDF746FBC0216846FDF742FB1D49B0
:102DF0002068884234D10022089202201446072617
:102E0000CDE90602CDE90460192309924FF40021AF
:102E100029924FF4FC7568468DE82E0003F0F4FE0D
:102E200008B1FFF723F81048016841F02001016064
:102E3000006800F0200035900B480830016841F030
:102E400020010160006830AA032100F020003590C5
:102E50004FF4006082E81300044830A903F0CEF874
:102E600036B070BD00200240D84402580014025809
:102E70002DE9F84F044603F0E7F900903CB194F8CF
:102E80003500022806D0802161650020E4E00120A1
:102E9000BDE8F88FC74DC74EC64918352068303693
:102EA000DFF81483DFF814938842DFF814A3DFF807
:102EB00014B32ED0A8422CD0B0422AD0404528D0FE
:102EC000484526D0504524D0584522D0BD4A183216
:102ED00090421ED0BC4A90421BD0BB4A183290424E
:102EE00017D0B94A3032904213D0B74A4832904294
:102EF0000FD0B54A603290420BD0B34A783290423C
:102F000007D0B14A9032904203D0AF4AA8329042E3
:102F100009D1026822F01E0202602068426922F094
:102F20008002426103E0026822F00E02026027681C
:102F30008F4238464DD0A8424BD0B04249D0404590
:102F400047D0484545D0504543D0584541D09D4A8B
:102F5000183290423DD09C4A90423AD09A4A183258
:102F6000904236D0984A3032904232D0964A483217
:102F700090422ED0944A603290422AD0924A7832BF
:102F8000904226D0904A9032904222D08E4AA83267
:102F900090421ED08D4A90421BD08C4A14329042EF
:102FA00017D08A4A2832904213D0884A3C32904245
:102FB0000FD0864A503290420BD0844A64329042FD
:102FC00007D0824A7832904203D0804A8C329742AE
:102FD00004D1206E026822F4807202607549206874
:102FE000884228D0A84226D0B04224D0404522D0E2
:102FF000484520D050451ED058451CD07149183145
:10300000884218D07049884215D06F4918318842DB
:1030100011D06D49303188420DD06B49483188421A
:1030200009D069496031884205D0674978318842C2
:1030300001D065499031016821F0010101600EE085
:1030400003F002F90099401A052808D92022626588
:103050000321002084F8351084F8340017E738681D
:10306000C007EDD1534A0121206890422ED0A842DA
:103070002CD0B0422AD0404528D0484526D05045D3
:1030800024D0584522D04F4B183398421ED04E4B77
:1030900098421BD04C4B1833984217D04A4B3033D0
:1030A000984213D0484B483398420FD0464B603378
:1030B00098420BD0444B7833984207D0424B903320
:1030C000984203D0404BA833984208D194F85C70E2
:1030D0003F23A06D07F01F07BB40836007E094F813
:1030E0005C30A06D03F01F0301FA03F34360206816
:1030F00090424DD0A8424BD0B04249D0404547D035
:10310000484545D0504543D0584541D02D4A183206
:1031100090423DD02C4A90423AD02B4A18329042ED
:1031200036D0294A3032904232D0274A4832904233
:103130002ED0254A603290422AD0234A78329042DB
:1031400026D0214A9032904222D01F4AA832904283
:103150001ED01E4A90421BD01C4A1432904217D0F7
:103160001A4A2832904213D0184A3C3290420FD06B
:10317000164A503290420BD0144A6432904207D023
:10318000124A7832904203D0104A8C3290420BD1CE
:10319000D4E919024260E06E30B1026822F4807214
:1031A0000260D4E91C024260002084F8351084F8E3
:1031B00034006DE6100002405800024070000240EA
:1031C00088000240A0000240100402400854025847
:1031D0002DE9F05F28B190F83510022904D0802144
:1031E00041650120BDE8F09F904C904B0168183C70
:1031F00018338E4ADFF83C92A1428D4CDFF838E25A
:103200008E4FDFF83CB2DFF83CA28F4D8F4E31D0AD
:1032100091422FD099422DD0A1422BD0494529D09F
:10322000714527D0B94225D0DFF810C20CF1180C37
:1032300061451FD0DFF808C2ACF1600C614519D0C0
:10324000DFF8FCC1ACF1480C614513D0DFF8F0C1E8
:10325000ACF1300C61450DD0DFF8E4C1ACF1180CD5
:10326000614507D0594505D0514503D0A94201D049
:10327000B1422CD1DFF8B4C14FF0040880F835809A
:10328000ACF1180C61451DD091421BD0994219D068
:10329000A14217D0494515D0714513D0B94211D07C
:1032A0006648183081420DD065486038814209D0A7
:1032B00063484838814205D061483038814201D0A6
:1032C0005F481838086820F001000860ABE0D1F8CA
:1032D00000C02CF00E08DFF854C1C1F80080ACF13A
:1032E000180C0168614527D0914225D0994223D01E
:1032F000A14221D049451FD071451DD0B9421BD0F4
:10330000DFF838C10CF1180C614515D0DFF830C179
:10331000ACF1600C61450FD0DFF824C1ACF1480C72
:10332000614509D0DFF818C1ACF1300C614503D01C
:10333000DFF80CC1ACF1180CD1F800C02CF0010C76
:10334000C1F800C0DFF8E4804FF0010C0168A8F17B
:103350001808414546D0914244D0994242D0A142FA
:1033600040D049453ED071453CD0B9423AD0334A6D
:103370001832914236D0324A603A914232D0304AC5
:10338000483A91422ED02E4A303A91422AD02C4AC5
:10339000183A914226D0594524D0514522D0A9420D
:1033A00020D0B1421ED02A4A91421BD0284A143262
:1033B000914217D0264A2832914213D0244A3C32F7
:1033C00091420FD0224A503291420BD0204A6432AF
:1033D000914207D01E4A7832914203D01C4A8C3267
:1033E000914218D1016E0A6822F480720A6090F846
:1033F0005C20816D02F01F020CFA02F24A60D0E9F3
:1034000019124A60C16E31B10A6822F480720A60F2
:10341000D0E91C124A600022016D80F835C080F8A6
:10342000342001B188470020DCE60000280002407B
:10343000580002407000024088000240A000024094
:103440007004024088040240A0040240B804024014
:10345000085402582DE9F05F04007DD06D4A6D4B91
:103460006C491832206830336B4E6C4F8842DFF85D
:10347000B0C1DFF8B081DFF8B091DFF8B0A1DFF8BC
:10348000B0B1DFF8B0E121D090421FD098421DD0FA
:10349000B0421BD0B84219D0604517D0404515D076
:1034A000484513D0504511D058450FD070450DD028
:1034B000604D1835A84209D05E4D3035A84205D080
:1034C0005C4D4835A84201D05A4D6035056825F05D
:1034D0000105056020680025884227D0904225D04C
:1034E000984223D0B04221D0B8421FD060451DD0B1
:1034F00040451BD0484519D0504517D0584515D0E8
:10350000704513D04B49183188420FD049493031AA
:1035100088420BD047494831884207D0454960313D
:10352000884203D043497831884218D1212105606F
:1035300020684560206885602068C5602068056156
:10354000206841612046FDF7B3FE94F85C203F21DE
:1035500002F01F02914000E059E0816031E03649FD
:1035600088421BD034491431884217D0324928315F
:10357000884213D030493C3188420FD02E49503117
:1035800088420BD02C496431884207D02A497831CF
:10359000884203D028498C31884238D105602068A0
:1035A0004560206885602068C56020680561204608
:1035B000FDF77EFE94F85C20012102F01F0291408D
:1035C00041602046FDF7CEFE206E18B10560D4E9BB
:1035D000190141606068401E072807D82046FDF7A2
:1035E0000FFFE06E0560D4E91C014160E5662567C8
:1035F0006567E56325646564A564E56425656565BF
:1036000084F83550002084F83450BDE8F09F012044
:10361000FBE700001000024058000240700002402A
:1036200088000240A0000240B8000240100402409E
:103630002804024040040240085402582DE9FC5F6F
:103640000446F74E0020DFF8D88300904FF416525E
:10365000F44808F11808A56DDFF8C493DFF8C0A39B
:10366000016809F1300920680AF1480AB1FBF2F15A
:10367000B04201912F68D5F800C0DFF8ACB335D067
:103680004146884232D0484530D050452ED058452A
:103690002CD0E5491831884228D0E349303188429E
:1036A00024D0E1494831884220D0E04988421DD0E9
:1036B000DE491831884219D0DC493031884215D0B2
:1036C000DA494831884211D0DFF860E30EF1600E2C
:1036D00070450BD0D54A7832904207D0D34B903307
:1036E000984203D0D149A83188427DD194F85C201A
:1036F000082102F01F0201FA02F23A424AD0B04217
:1037000032D0404530D048452ED050452CD0584579
:103710002AD0C54A1832904226D0C34A303290424D
:1037200022D0C14A483290421ED0C04A90421BD09B
:10373000BE4A1832904217D0BC4A3032904213D061
:10374000BA4A483290420FD0B84A603290420BD009
:10375000B64A7832904207D0B44A9032904203D0B1
:10376000B24AA832904203D1026802F0040202E099
:10377000026802F008026AB1026822F004020260E4
:1037800094F85C0000F01F008140A960606D40F07B
:103790000100606594F85C00012100F01F00814089
:1037A000394240D02068B04234D0404532D04845FC
:1037B00030D050452ED058452CD09B4A18329042DC
:1037C00028D0994A3032904224D0974A48329042C9
:1037D00020D0964A90421DD0944A1832904219D077
:1037E000924A3032904200E0AFE113D08F4A483223
:1037F00090420FD08D4A603290420BD08B4A783283
:10380000904207D0894A9032904203D0874AA8322A
:1038100090427DD1406910F0800F04D0A960606DA6
:1038200040F00200606594F85C00042100F01F0085
:10383000814039423ED02068B04232D0404530D03D
:1038400048452ED050452CD058452AD0764A1832BB
:10385000904226D0744A3032904222D0724A483286
:1038600090421ED0714A90421BD0704A183290424A
:1038700017D06E4A3032904213D06C4A4832904290
:103880000FD06A4A603290420BD0684A7832904238
:1038900007D0664A9032904203D0644AA8329042E0
:1038A0004ED1006810F0020F04D0A960606D40F0A6
:1038B0000400606594F85C00102100F01F00814056
:1038C000394258D02068B04234D0404532D04845C3
:1038D00030D050452ED058452CD0534A1832904203
:1038E00028D0514A3032904224D04F4A4832904238
:1038F00020D04E4A90421DD04C4A1832904219D0E6
:103900004A4A3032904215D0484A4832904200E04C
:1039100014E00FD0454A603290420BD0434A7832CF
:10392000904207D0414A9032904203D03F4AA83299
:10393000904207D1006800F0080006E0006872E7D6
:103940000068B7E7006800F00400A0B1A960206833
:103950000168490304D50068000308D5A16C07E09D
:103960000168C90503D4016821F008010160216CD8
:1039700009B12046884794F85C00202100F01F0020
:103980008140394279D02068B04232D0404530D0B1
:1039900048452ED050452CD058452AD0224A1832BE
:1039A000904226D0204A3032904222D01E4A4832DD
:1039B00090421ED01D4A90421BD01C4A18329042A1
:1039C00017D01A4A3032904213D0184A48329042E7
:1039D0000FD0164A603290420BD0144A783290428F
:1039E00007D0124A9032904203D0104AA832904237
:1039F00003D1006800F0100002E0006800F002004F
:103A0000B0B3A96094F835000428206801680FD08D
:103A100049037ED5006800032BD4616C2AE00000C6
:103A200010000240B4000024700002401004024064
:103A300021F0160101602068416921F08001416197
:103A4000206C08B9A06C20B12068016821F0080141
:103A5000016094F85C303F21012003F01F03002235
:103A60009940A96084F8350084F83420216D65E020
:103A700003E0E16B09B120468847606D00287DD0E6
:103A8000606DC00759D02068042184F83510B04219
:103A90002BD0404529D0484527D0504525D0584502
:103AA00023D09D49884220D09B49183188421CD0A0
:103AB00099493031884218D09849884215D09749A1
:103AC0001831884211D09549303188420DD0934940
:103AD0004831884209D091496031884205D08F49E8
:103AE0007831884201D08D499031016821F001017F
:103AF000016020680099019A491C0091914202D806
:103B00000168C907F6D10068C00710D003200FE094
:103B1000FFE70168C905ACD403680121002223F046
:103B20001003036084F8351084F83420A1E70120E5
:103B300084F83500002084F83400E16C00291DD0A1
:103B400002B02046BDE8F05F0847754988421DD0A5
:103B500073491431884219D071492831884215D0EF
:103B60006F493C31884211D06D49503188420DD0A7
:103B70006B496431884209D0694900E084E07831BA
:103B8000884203D066498C3188427DD194F85C80AC
:103B90000427016808F01F0807FA08F717EA0C0F56
:103BA000009746D04F0744D500980F04686003D5AE
:103BB000C8033CD4A16CC1E7880638D42068B04261
:103BC0002DD055496039884229D0484527D05045E5
:103BD00025D0584523D05049884220D04E4918312D
:103BE00088421CD04C493031884218D04B49884219
:103BF00015D04A491831884211D04849303188429D
:103C00000DD046494831884209D0704507D09042CE
:103C100005D0984203D04149A831884203D10168B8
:103C200021F0080102E0016821F004010160216C2B
:103C300084E7022707FA08F717EA0C0F00974ED01F
:103C40008F074CD500980F04686003D5C80344D48F
:103C5000616C73E7880640D42068B0422FD02E49AB
:103C6000603988422BD0484529D0504527D0584547
:103C700025D02949884222D02749183188421ED0B0
:103C800025493031884200E044E018D02349884279
:103C900015D022491831884211D02049303188424C
:103CA0000DD01E494831884209D0704507D0904256
:103CB00005D0984203D01949A831884203D1016840
:103CC00021F0140102E0016821F00A0101600121E4
:103CD00084F83510002084F83400E16B2EE70822C8
:103CE00002FA08F212EA0C0F14D0090712D5016883
:103CF00021F00E01016094F85C100120002201F017
:103D00001F0100FA01F16960606584F8350084F8EC
:103D1000342012E7BDE8FC9F8800024010040240F6
:103D2000085402582DE9F05F044602F08DFA002C89
:103D300007467DD0E34E022120684FF00308DFF8EC
:103D400088934FF00005DFF884A3B042DFF880B31A
:103D500034D0DC4A1832904230D048452ED05045FD
:103D60002CD058452AD0DA4A1832904226D0D84A68
:103D70003032904222D0D64A483290421ED0D54AA4
:103D800090421BD0D34A1832904217D0D14A3032D9
:103D9000904213D0CF4A483290420FD0CD4A603281
:103DA00090420BD0CB4A7832904207D0C94A903229
:103DB000904203D0C74AA83290427DD184F8351092
:103DC000B04284F834502ED0BE49183188422AD0EF
:103DD000484528D0504526D0584524D0BC491831F4
:103DE000884220D0BA49303188421CD0B849483185
:103DF000884218D0B749884215D0B6491831884250
:103E000011D0B449303188420DD0B249483188428E
:103E100009D0B0496031884205D0AE497831884236
:103E200001D0AC499031016821F00101016008E046
:103E300027E100BF02F008FAC01B052801D92021A4
:103E40001CE120680068C007F4D104F10800216873
:103E5000D4E9053C8E4685C809681043D4E9072893
:103E60001F43636A38439C4F40EA0C0010433940BB
:103E700040EA0800042B40EA010003D1D4E90B1208
:103E800011430843954909686FF30F01B1F1005FD1
:103E90000FD36168A1F12902052A08D9163A032A2D
:103EA00005D9083A012A02D94F39032901D840F42B
:103EB0008010CEF8000000E023E02068676A4069C7
:103EC000042F20F0070047EA00070DD1D4E90A01CA
:103ED000074349B12046FDF7CDFA28B1402060657F
:103EE000012184F83510CCE0206847612046FDF7B9
:103EF000DFF994F85C203F2102F01F0291408160BD
:103F000054E0774A90421BD0754B1433984217D037
:103F1000734B2833984213D0714B3C3398420FD0E7
:103F20006F4B503398420BD06D4B6433984207D09F
:103F30006B4B7833984203D0694B8C3398427DD1D8
:103F400084F8351084F83450664B0168A26801EAA1
:103F5000030E402A73D0802A72D00022D4E903785D
:103F6000D4E9053142EAD70242EAD8085C4AD4E9EA
:103F7000077C48EAD30848EAD10141EAD701524216
:103F800041EA1C11142341EA0E010160206810442B
:103F9000B0FBF3F08000E0652046FDF789F994F866
:103FA0005C20012102F01F02914041602068B04274
:103FB00057D044491831884253D0484551D05045D4
:103FC0004FD058454DD042491831884249D04049D8
:103FD0003031884245D03E494831884241D03D4940
:103FE00088423ED03B49183188423AD03949303175
:103FF000884236D037494831884232D0354960311D
:1040000088422ED03349783188422AD031499031C4
:10401000884226D02F49A831884222D03049884290
:104020001FD02F49143188421BD02D492831884296
:1040300017D02B493C31884213D002E01DE017E035
:1040400018E02749503188420BD025496431884215
:1040500007D023497831884203D021498C318842E6
:1040600029D12046FDF77EF9A06880280CD00CE00D
:10407000102273E74FF4804270E74021616584F8B5
:1040800035800120BDE8F09F6560216E20790860D1
:10409000D4E9190141606068401E072808D820460D
:1040A000FDF7AEF9E06E0560D4E91C01416002E065
:1040B000E566256765670120656584F835000020A1
:1040C000E0E70000100002404000024058000240BB
:1040D00070000240100402403F8010FE0010005C9F
:1040E000085402580F00FEFF2DE9F84F04008C46DB
:1040F0004FF00000009014D094F83400012812D042
:1041000094F835500120002184F83400012D0CD0A2
:10411000C00260650120009084F834100098BDE86A
:10412000F88F0120FBE70220F9E78C4D022620687A
:1041300084F83560A8428A4D61658A4E8A4FDFF85F
:104140002C82DFF82C92DFF82CA2DFF82CB226D0DC
:10415000A84224D0B04222D0B84220D040451ED040
:1041600048451CD050451AD0584518D0834988423C
:1041700015D082491831884211D0804930318842A7
:104180000DD07E494831884209D07C49603188424F
:1041900005D07A497831884201D078499031016858
:1041A00021F00101016061462046FDF78DF96B4960
:1041B000206888422CD0A8422AD0B04228D0B842E9
:1041C00026D0404524D0484522D0504520D05845DF
:1041D0001ED06A4A90421BD0684A1832904217D0CB
:1041E000664A3032904213D0644A483290420FD02F
:1041F000624A603290420BD0604A7832904207D0D7
:104200005E4A9032904203D05C4AA83290420CD170
:10421000026822F01E0242F016020260206C88B191
:104220002068026842F008020BE0026822F00E02E9
:1042300042F00A020260206C20B12068026842F05D
:1042400004020260206888424BD0A84249D0B042A4
:1042500047D0B84245D0404543D0484541D050456D
:104260003FD058453DD0454A90423AD0434A183253
:10427000904236D0414A3032904232D03F4A4832A2
:1042800090422ED03D4A603290422AD03B4A78324A
:10429000904226D0394A9032904222D0374AA832F2
:1042A00090421ED0364A90421BD0354A143290427A
:1042B00017D0334A2832904213D0314A3C329042D0
:1042C0000FD02F4A503290420BD02D4A6432904288
:1042D00007D02B4A7832904203D0294A8C32904240
:1042E0000DD1206E0268D20303D5026842F48072B9
:1042F0000260E06E18B1026842F4807202602068C9
:10430000884226D0A84224D0B04222D0B84220D041
:1043100040451ED048451CD050451AD0584518D0AD
:104320001649884215D015491831884211D01349D1
:10433000303188420DD011494831884209D00F49A7
:104340006031884205D00D497831884201D00B494F
:104350009031016841F001010160DFE61000024088
:104360002800024040000240580002407000024015
:1043700088000240A0000240B80002401004024041
:10438000085402587047000010B500F00BF8000602
:1043900005D503484068BDE810400EF03DBB10BD98
:1043A00058000024D0F88C007047D0F8880070477F
:1043B00000297DD00268126802F00C02CA6202680D
:1043C0001268C2F3001281F828200268126802F015
:1043D00060024A620268126842F30022521C81F8AD
:1043E000202002681268C2F34022CA77026812686D
:1043F00042F38022521C8A7702681268C2F3C022FC
:104400004A7702681268C2F300320A7702681268BB
:1044100002F400528A610268126802F480424A6122
:1044200002681268C2F300428A740268126842F39A
:104430004042521C4A740268126842F3C042521C45
:104440000A7402681268C2F30052CA7302681268E2
:10445000C2F340528A7302681268C2F380524A73F0
:1044600002681268C2F3C0520A730268126802F04E
:10447000E0628A6002681268C2F3C0620A71026870
:10448000126802F0E0420A6002685268C2F30D024C
:104490004A630268526842F30042521C81F832209B
:1044A00002685268C2F3404281F83120026800E09D
:1044B00062E05268C2F3804281F83020026852689C
:1044C000C2F3006281F8382002685268C2F3446285
:1044D000CA630268D268C2F3002281F840200268F1
:1044E000D26802F00F024A640268126FC2F34002FF
:1044F00081F854200268126F42F3C012521C81F8F6
:104500004C200268126F02F070020A650268126F96
:10451000120C8A640268D2F8902002F0010281F83D
:1045200056200268D2F89020C2F3400281F855204C
:104530000268D2F8002D02F072028A650268D2F891
:10454000302D02F02302CA650268D2F8302DC2F382
:10455000C00281F862200268D2F8302DC2F3001246
:1045600081F861200068D0F8300D40F38010401CC5
:1045700081F8600000207047012070472DE9F04766
:1045800001684FF0B04A044601F58050D1F8B060A0
:10459000D0F86051D0F83471DAF8A880690608D5EF
:1045A000790606D548F24001C0F86011204600F0B7
:1045B000D1FA05EA0700C00709D0206848F20101D6
:1045C00000F58050C0F86011204600F0E7FB680459
:1045D0004FF0E0092AD5780428D5D4F88800E904FA
:1045E00040F00800C4F88800206810D5A0F6CC6020
:1045F00041F2021300F50050C26A1A40C4F88C2040
:10460000026822F440420260C4F884900BE000F596
:1046100080504FF4CD41D0F8602102F4CD42C4F86F
:104620008C20C0F860112046FFF7AEFE70044FF0FA
:10463000000501D4B00411D5D4F8881041F0100160
:10464000C4F888102168D1F8B810C4F89010C4F8E4
:1046500084902046FFF798FEC4F89050F0060BD5E2
:104660002068D0F8C00000F06000C4F89400204634
:1046700000F072F9C4F89450B0060BD52068D0F859
:10468000D00000F00F00C4F898002046FFF77AFE33
:10469000C4F898505FEA482006D54FF48001CAF864
:1046A000A810204600F082FBBDE8F087F8B50400B2
:1046B00003D0D4F8840010B107E00120F8BD202019
:1046C000C4F88400204600F0DBF86848016841F037
:1046D00002010160006800F002000090207A08B139
:1046E0004FF4000003F076FD61492068096800F589
:1046F0008050016841F00101016001F0A5FDE02654
:1047000005464FF4FA7706E001F09EFD401BB842E3
:1047100001D9042023E0206800F580500068C0071C
:10472000F2D1204600F040FA03F0A0F8514A216887
:10473000B0FBF2F0401EC1F8DC002046FCF7DCFFC5
:10474000206800F58050D0F8001121F4E01141F408
:104750000021C0F800116169880705D00120C4F864
:104760008800C4F88460A8E7206847F6FE7300F567
:104770008050D0F808219A4342EA4101C0F808115C
:1047800000210846E26800EB400504EB800302EBE1
:10479000C502116051609160D160401C04289A618B
:1047A000F0D3A1620323206800F58050C0F82C31BB
:1047B0002068E26800F58050C0F814212068E268A3
:1047C00000F58050C0F820215FF00002206902EB64
:1047D000420604EB820500EBC60001604160816087
:1047E000C160521C0161042A4161A864EED3E165F5
:1047F0002166A166E166A165206800F58050C0F8D9
:1048000030312068226900F58050C0F81C212268F0
:10481000206902F580524830C2F82801D4E900200E
:104820008088C2F80003606827688678C3780278B9
:104830004578360442EA036046EA05221043C7F889
:10484000040320680C4BD0F80C271A43C0F80C273F
:1048500020680A4BD0F810271A43C0F810271023FD
:10486000C4F88810C4F884300020F8BDF44402581D
:104870000404005840420F006000020C00C0200CED
:10488000F0B587B0044614216846FBF7F2FD2D49C8
:104890002068884254D12C48016841F400410160ED
:1048A000016801F400410591016841F48031016023
:1048B000016801F480310591016841F40031016023
:1048C000006800F4003005901F480830016841F08E
:1048D00004010160016801F004010591016841F0E3
:1048E00001010160016801F001010591016841F0D9
:1048F00002010160006802240025694600F0020000
:10490000059003260B2732208DE8F1000F4801F0B7
:1049100075FB862069468DE8F1000D4801F06EFBBD
:104920004FF4605069468DE8F1000A4801F066FBDB
:10493000002205213D2001F09BFD3D2001F08BFD73
:1049400007B0F0BD00800240D84402580008025869
:10495000000002580004025870472DE9F84F4FF04C
:10496000000704465FEA0109B84604D0D4F8840081
:1049700040285ED106E0D4F8880040F00100C4F879
:10498000880056E0E66D4FF0000BE06E04EB860108
:10499000C0F1040A8D6C39E0E868400003D568680E
:1049A000A06728686067E868800001D4E06F28B3DA
:1049B000E868800003D5C4F860B0C4F864B0E86863
:1049C000EA68616EC0F30E00D200A0EB0100009017
:1049D00003D5E9684FF00108216704F180010098D0
:1049E0002A6983B2081F00F0BBF8206E401C2066C5
:1049F000626E009810446066C5F810B0761C042EF4
:104A000000D3361F7F1C04EB8600856CE868002805
:104A100004DB574502D2B8F1000FBDD0E06EC019DB
:104A2000E06602D02046FDF7D9F9B8F1010FE6653E
:104A300002D00120BDE8F88FE26F0020C9F8002005
:104A4000C4F87CB0F6E700002DE9F04104460068A8
:104A50001E46D0F80032DB0719D1D0F8003223F01F
:104A6000787343EA415121F4F81141EA024141F0DF
:104A70000D01C0F8001201F0E7FB4FF47A7705460C
:104A800008E000BF01F0E0FB401BB84202D9012062
:104A9000BDE8F0812068D0F80002C007F2D120689C
:104AA000D0F8040280B230600020F1E72DE9F04731
:104AB00000F1180580460127D5E90A641BE000BF14
:104AC00005EB8409761ED9F81400D0B104EB44023A
:104AD000D8F80C100C2303EBC202895800290DDB17
:104AE00000F062F90021C9F81410641C042C00D3F2
:104AF000241FC5E90A640EB1002FE1D10020BDE8F2
:104B0000F087641C042CF6D3241FF4E71CB504467C
:104B10000D480CF0D7FD03000FD003F120002060FA
:104B20000A484FF4BF61186141222068CDE90001B5
:104B3000002108460EF0C6F91CBD054A01210020DF
:104B4000117020601CBD0000386A01085135010851
:104B500058000024014840680DF05EBF5800002452
:104B600010B5002442F8204C22F8184C22F8163CCC
:104B7000203A04681CB10C6822600A6004E00260FC
:104B8000FBE701891944018100680028F9D110BDB3
:104B900010B519B1D0F88420102A01D0012010BD21
:104BA000FDF748F8002010BD70B505460068D0F844
:104BB000000220F4706402F059FE1049884202D2CB
:104BC00044F4007416E00E49884202D244F4407462
:104BD00010E00C4988420DD30B49884202D244F4BC
:104BE000807407E00949884202D244F4806401E0FD
:104BF00044F4A0642868C0F8004270BDC00E1602DC
:104C00000087930300E1F50580D1F00880B2E60E3D
:104C100010B50446D0F88400102801D0012010BD42
:104C20002022C4F8842001210420A165E0662046EA
:104C3000FDF7D4F8206840224DF2C10100F5805004
:104C4000D0F8043143F00103C0F80431206800F5C6
:104C50008050D0F8083143F00103C0F808312068D3
:104C600000F58050D0F8603143F48173C0F86031B2
:104C70002068D0F8003D43F00103C0F8003D2068F3
:104C8000036843F0020303602068036843F00103F4
:104C90000360206800F58050D0F834310B43C0F831
:104CA0003431C4F88420002010BD10B5D0F8841031
:104CB000402901D0012010BD20214DF2C104C0F8CF
:104CC00084100021026802F58052D2F83431A343E7
:104CD000C2F83431026802F58052D2F8043123F070
:104CE0000103C2F80431026802F58052D2F808319B
:104CF00023F00103C2F808310268136823F00103AE
:104D000013600268D2F8003D43F00103C2F8003D91
:104D10000268136823F00203136000EB8102926CB7
:104D2000D368491C042923F08043D360F5D30022C3
:104D300082651021C0F88410104610BD10B50446DD
:104D400021B1D4F88400402805D011E0D4F88800BF
:104D500040F001000AE0486B0122E0632046FCF7C6
:104D60005FFD38B1D4F8880040F00200C4F8880034
:104D7000012010BDBFF34F8FA06A401CA062042821
:104D800001D3001FA0620146206804EB810100F5F9
:104D900080508969C0F82011002010BD014880684A
:104DA0000DF03ABE580000240EF01EBB7047000004
:104DB00070B504460068D0F80052ED071FD1D0F856
:104DC00000029BB2124D20F07870C5F8043240EA20
:104DD000415020F4F81040EA024020F00C00001D81
:104DE00040F00100C5F8000201F02EFA4FF47A7687
:104DF000054606E001F028FA401BB04201D9012027
:104E000070BD2068D0F80002C007F3D170BD00006B
:104E10000080024010B590F89830012B09D0022B89
:104E200007D0D0F89C1041F00201C0F89C1001207E
:104E300010BD03689C6D0C4203D1DC6D44F001048D
:104E400004E09C6D31EA04041FD00324DC658B056B
:104E500005D50368D3F8E0401443C3F8E0404B05A0
:104E600005D50368D3F8E4401443C3F8E440006870
:104E7000084A01EA0203446D074A1C43446510686E
:104E800040EA91701060002010BDDC6D44F0020417
:104E9000DCE70000FFFFCF3F14A8004070B50446D8
:104EA00090F89800022804D0D4F89C0040F0080044
:104EB0000DE02068D0F8C03013F07C5F0BD0D0F844
:104EC000C4309B020CD5D4F89C0040F40070C4F8A8
:104ED0009C00012070BDD4F89C0040F02000F6E753
:104EE000D0F8C400C0F3044520462B46FDF7D4F8A3
:104EF00021680120A840C1F8D000C4F89400002027
:104F000070BD7047F0B51F4C03680A68A34204D017
:104F1000D0F89C1041F0200107E090F89830012B68
:104F200007D0D0F89C1041F00401C0F89C1001207B
:104F3000F0BD1548CAB103684FF69F74124A23F0BA
:104F400040030360083205688E68D1E90373A54306
:104F500045EA06243B4323430360106849696FF325
:104F60000F00084310600020F0BD026842F04002CC
:104F700002600268898822F4702242EA01410160DD
:104F8000F1E7000000A0004004A8004070B590F8D0
:104F90009820012A09D0022A07D0D0F89C1041F0AD
:104FA0000201C0F89C10012070BD0B68CA6883B173
:104FB0000B69072A43EA427325D00C7A4A6942EA10
:104FC00084724968006F00EBC100C0E90032002024
:104FD00070BD072A0DD00C7AD6060D8A4B6943EABC
:104FE000847246EA0543C06E49681A4340F821209E
:104FF000EDE70B8A4FF06055D1E9062442EA0342FF
:1050000045EA0423EFE78A69DBE730B590F898506A
:10501000039C012D07D0D0F89C1041F00401C0F88A
:105020009C10012030BD0D01016845EA820040EA74
:1050300043002043C1F88000002030BD90F8983034
:10504000012B07D0D0F89C1041F00401C0F89C104F
:1050500001207047006842EA012181640020704706
:1050600010B504000FD000F0A3FD2068C16D21F041
:105070000301C165204600F0F3FB0020C4F89C004A
:1050800084F8980010BD012010BD000070B590F8A4
:105090009820012A09D0022A07D0D0F89C1041F0AC
:1050A0000201C0F89C10012070BD0368154A164C1F
:1050B00001EA02055E6D8A054FF0000226EA050648
:1050C0005E65236823EA9173236002D50368C3F801
:1050D000E020490502D50168C1F8E42001688A6D25
:1050E0004B6D934303D1CB6D23F00103CB65006877
:1050F000416D114203D1C16D21F00201C165002053
:1051000070BD0000FFFFCF3F14A8004090F898103A
:10511000012907D0D0F89C1041F00401C0F89C1080
:10512000012070470068C16841F40001C16000209F
:105130007047000002488168491C81607047000088
:1051400004000024704700000068402905D0D0F812
:10515000B40000BF00F07F007047D0F8A400F9E76A
:10516000F0B590F898500024022D04D0D0F89C108F
:1051700041F0080129E0402905D0412929D0056DD9
:105180008D4219D942E00568D5F8A06016F4FE0FEB
:1051900012D0D5F8A460760613D0D5F8A460F60135
:1051A00005D5D5F8A06016F0004F00D50124D5F83C
:1051B000A470466F456C24E0D0F89C1041F02001AB
:1051C00003E0D0F89C1041F48071C0F89C100120DD
:1051D000F0BD0568D5F8B06016F4FE0FECD0D5F838
:1051E000B4607606EDD0D5F8B460F60105D5D5F8F3
:1051F000B06016F0004F00D50124D5F8B470866F6A
:10520000C56CC7F305273C44654302E0456DC66F96
:105210004D4306EB85052E6816F0804656602E68D5
:1052200036D026F060461660D5F800C000262E4F16
:105230000CF0005CC2F808C0D5F800C00CF0004CBF
:10524000C2F810C0B5F804C01FFA8CFCC2F81CC02C
:10525000D5F804C0CCF3034CC2F80CC0D5F804C098
:105260000CF4801CC2F814C0D5F804C00CF4001C67
:10527000C2F818C0D5F804C0CCF3066CC2F820C040
:10528000D5F804C008354FEADC7CC2F824C008E039
:10529000C6F38A46C7E700BF15F806C003F806C084
:1052A000761CD2F80CC017F80CC0B445F4D84029CD
:1052B0000AD041290CD020294FF001020CD20068FD
:1052C0008A40C0F898200DE00068C0F8A84009E0C6
:1052D0000068C0F8B84005E0006801F01F018A408E
:1052E000C0F89C200020F0BD7C6A01080068D0F85E
:1052F000C40000F03F007047704700002DE9FF5FD9
:10530000DFF80CB304460BF10401DBF8000025685C
:105310000F68AA468007D5F85090696DD5F850807F
:105320006E6D2A6DD5F854C02B6D00EA8770009021
:1053300009F470496F6D286D01EA09010191DAF8ED
:105340005410DAF85490DAF8505008F00F0806EAD2
:105350000806029602F0F00203F071536FEA0906A4
:105360001F4000F060700CEA020CCDF80CC0F20592
:1053700001EA00090CD4E843C00509D400214FF428
:105380008073CAF85030CBF800102046FFF7B4FF06
:10539000700512D4E84340050FD4206800234FF471
:1053A0008068D0F8DC20D0F8E410C0F85080CBF84A
:1053B00000301140204600F040FCDFF858A2009871
:1053C00050B12268830F00EA0A001065CBF8003064
:1053D00020460099FFF795FD019850B12268830F90
:1053E00000EA0A001065CBF800302046019900F071
:1053F00026FC029850B12268830F00EA0A0010656B
:10540000CBF800302046029900F0F6FA039850B12C
:105410002268830F00EA0A001065CBF800302046AE
:10542000039900F0ABFB30050CD4E843000509D428
:10543000236800204FF400621A65CBF80000204674
:1054400000F0FEFBB00512D4E84380050FD42068BD
:1054500000234FF40078D0F8D820D0F8E010C0F83E
:105460005080CBF800301140204600F0E7FB3003BD
:105470000CD4E843000309D4236800204FF4002231
:105480001A65CBF80000204600F0B4FAF0030CD403
:10549000E843C00309D4236800204FF480321A6522
:1054A000CBF80000204600F0C7FB70030CD4E843A3
:1054B000400309D4226800204FF480231365CBF801
:1054C0000000204600F0B7FBB0030FD4E843800390
:1054D0000CD4236800204FF400321A65CBF800008A
:1054E000D4F89C0040F08000C4F89C00B9F1000F93
:1054F0000BD022684FEA997309EA0A001065CBF8CD
:10550000003049462046FFF71DFE5FB12268BB0F01
:1055100007EA0A001065CBF80030D4F89C00384345
:10552000C4F89C003C492068884268D16068814684
:105530008068800763D0D9F82060D9F82410D9F8A2
:105540002080D9F82400D9F820C0D9F82470D9F8DF
:105550002030D9F82450D9F8202003F4FC4306F079
:105560000F0AD9F824601D40D9F824B008F030089B
:105570000CF4C07C02F4F02211EA0A0100EA0808E7
:1055800007EA0C0706EA0206D9F820A004D0C9F8F9
:105590002010204600F04CFBB8F1000005D06168F7
:1055A00008624146204600F045FB6FEA0B004006CA
:1055B0000ED46FEA0A0040060AD460684021C36B2B
:1055C000C26B01622046190C02F03F0200F031FB71
:1055D0002FB1606807623946204600F028FB35B1DC
:1055E00060680562D4F89C002843C4F89C0036B17A
:1055F00060680662D4F89C003043C4F89C00D4F87C
:105600009C00002802D02046FFF794FDBDE8FF9FD4
:1056100010A80040FFFFCF3F00A000402DE9F0415F
:1056200094B08D494C2204466846FAF7FBFE64B1FB
:105630008A4D2068A84202D100F58070606094F81D
:1056400098004FF0000820B108E0012014B0BDE838
:10565000F081204684F8998000F038F9206881694B
:1056600021F01001816100F0EFFD0327064604E000
:1056700000F0EAFD801B0A2811D820688069000725
:10568000F6D42068816941F00101816100F0DCFD00
:1056900006460DE000F0D8FD801B0A2808D9D4F892
:1056A0009C0040F00100C4F89C0084F89870CCE79E
:1056B00020688069C007EDD02068816941F002014F
:1056C0008161207C01282068816937D041F0400148
:1056D0008161607C01282068816932D021F4804199
:1056E0008161A07C0128206881692DD041F480511E
:1056F00081612068A268816921F440711143816150
:105700002068816921F0A40181612068016921F08C
:1057100010010161E068012819D010B302281BD0E4
:105720002068816941F0800181612068016941F050
:1057300010010161E06803280ED012E021F0400161
:10574000C6E741F48041CBE721F48051D0E72068DF
:10575000816941F0040103E02068816941F0200182
:105760008161207E6FF0FF02D4E90773A68A1102DF
:10577000400602EB0727A0F10070384327685B1E44
:10578000184301EB06463043F861A068B0F5407F4E
:1057900011D104F12800A68C6FF00F0C89C801EB21
:1057A0000641401E02EB0322104322680CEB071354
:1057B00018430843D060206E30B12068626ED0F884
:1057C000C0101143C0F8C010D4E917126846D14286
:1057D00009D02168A36E51F8C82F50F8233022F069
:1057E00007021A430A60216C49B12168626C51F8C2
:1057F000BC3F50F8226023F0070232430A60A16CDC
:1058000051B12168E36C51F8BC2F50F8233022F0DD
:10581000700242EA03120A60216D51B12168626D83
:1058200051F8BC3F50F8220023F4E06242EA002025
:1058300008602068A84204D16068816821F00301F3
:105840008160C4F894800121C4F89C8084F8981089
:105850002046FCF73DFBF9E68C6A010800A00040F9
:10586000144A10B50368144C50681449A342A0F1BF
:1058700001000CD1506018B9086820F480700860ED
:105880000F484FF4C05100F001FB13200DE00D4C08
:10589000A3420ED1506018B9086820F480700860E7
:1058A0000948602100F0F2FA1420BDE8104000F031
:1058B000C1BD10BD0400002400A00040EC4402580B
:1058C0000000025800A40040000402582DE9F043F3
:1058D000B7B00646142130A8FAF7CBFDC0216846C0
:1058E000FAF7C7FD3E4D4FF08050316802263D4A21
:1058F0000C3D3A4F4FF00009394C91424FF00908E6
:1059000030D100221C9041136846CDE9001201F00D
:105910007BF908B1FCF7AAFA7868401C7860012886
:1059200007D1206840F480702060206800F4807007
:105930003590286840F001002860286830A94FF4AD
:10594000C05200F0010081E84402CDE934802648CD
:10595000339600F053FB00220521132000F088FD50
:10596000132035E0214A914234D100221C904FF49B
:1059700000416846CDE9001201F046F908B1FCF794
:1059800075FA7868401C7860012807D1206840F4D7
:1059900080702060206800F480703590286840F0A6
:1059A00002002860286830A9602200F0020081E827
:1059B0004402CDE934800E48339600F01FFB1020DE
:1059C00000F048FC00220521142000F051FD1420B5
:1059D00000F041FD37B0BDE8F08300000400002472
:1059E000EC44025800A000400000025800A400400F
:1059F00000040258704700002DE9F04F00688BB09A
:105A0000594A4FF01208594C4FF0160B584D90421E
:105A10004FF01E064FF026074FF036094FF0460AAA
:105A20004FD1C8074AD020686A46401CC11700EB16
:105A3000D16121F01F01401A20604021C0EBC0005D
:105A400000EB800005EB40034A489B1DFFF788FBF5
:105A500070BB21680098C1EBC10101EB810125F801
:105A6000110005EB4100039989B20829418001D852
:105A7000891D0FE00939072920D2DFE801F004076A
:105A80000A0D0F111400A0F802800EE0A0F802B079
:105A90000BE01A21418008E0468006E0478004E0E0
:105AA000A0F8029001E0A0F802A00221FBF750F953
:105AB00030484021FFF748FB0028B4D10BB0BDE8C7
:105AC000F08F2D4A9042F9D1C807F7D020686A4676
:105AD000401CC11700EBD16121F01F01401A20606A
