:020000040800F2
:10000000706D00203903000879310008CF2E0008F8
:10001000BD30000835050008ED360008000000007E
:10002000000000000000000000000000790200084D
:10003000CD08000800000000D5020008F9340008CF
:100040005303000853030008530300085303000838
:100050005303000853030008530300085303000828
:100060005303000853030008530300085303000818
:100070005303000853030008530300085303000808
:100080005303000800000000530300085303000856
:1000900053030008D5080008530300085303000861
:1000A00053030008530300085303000853030008D8
:1000B00053030008530300085303000853030008C8
:1000C00053030008530300085303000853030008B8
:1000D00053030008530300085303000853030008A8
:1000E0005303000853030008530300085303000898
:1000F00053030008530300085303000800000000E6
:100100000000000053030008000000005303000833
:10011000530300080000000053030008A135000845
:100120005303000853030008530300085303000857
:100130005303000800000000000000005303000803
:1001400053030008530300080000000000000000F3
:10015000000000000000000000000000000000009F
:100160000000000000000000000000005303000831
:100170005303000800000000000000000000000021
:100180000000000053030008000000000000000011
:10019000000000000000000000000000000000005F
:1001A0000000000000000000530300085303000893
:1001B0005303000853030008530300080000000025
:1001C00000000000530300080000000000000000D1
:1001D000530300085303000800F002F800F03CF855
:1001E0000AA090E8000C82448344AAF10107DA4592
:1001F00001D100F031F8AFF2090EBAE80F0013F0A8
:10020000010F18BFFB1A43F00103184774430000A5
:1002100094430000103A24BF78C878C1FAD8520736
:1002200024BF30C830C144BF04680C607047000070
:100230000023002400250026103A28BF78C1FBD8EF
:10024000520728BF30C148BF0B6070471FB504F08C
:100250006DF91FBD10B510BD00F0EAF81146FFF7AB
:10026000F5FF03F0ADFB00F008F903B4FFF7F2FF70
:1002700003BC00F00FF900002C4B19680868B0E8C7
:10028000F04F80F30988BFF36F8F4FF0000080F3C9
:10029000118870470000000008480068006880F37B
:1002A00008884FF0000080F3148862B661B6BFF38F
:1002B0004F8FBFF36F8F00DF00BF00BF08ED00E07E
:1002C000DFF80C00016841F470010160704700BF65
:1002D00088ED00E0EFF30980BFF36F8F134B1A68CE
:1002E0001EF0100F08BF20ED108A20E9F04F1060BB
:1002F00009B44FF0500080F31188BFF34F8FBFF364
:100300006F8F03F077FF4FF0000080F3118809BC76
:1003100019680868B0E8F04F1EF0100F08BFB0EC85
:10032000108A80F30988BFF36F8F70473400002074
:10033000EFF30580704700000948804709480047EF
:10034000FEE7FEE7FEE7FEE7FEE7FEE7FEE7FEE785
:10035000FEE7FEE704480549054A064B70470000E2
:1003600091350008D901000870610020706D0020EF
:10037000706500207065002010B5203AC0F00B8039
:10038000B1E81850203AA0E81850B1E81850A0E899
:100390001850BFF4F5AF5FEA027C24BFB1E81850F3
:1003A000A0E8185044BF18C918C0BDE810405FEA63
:1003B000827C24BF51F8043B40F8043B08BF7047DF
:1003C000D20728BF31F8023B48BF11F8012B28BFE4
:1003D00020F8023B48BF00F8012B70474FF00002A5
:1003E00000B5134694469646203922BFA0E80C502B
:1003F000A0E80C50B1F12001BFF4F7AF090728BF06
:10040000A0E80C5048BF0CC05DF804EB890028BF81
:1004100040F8042B08BF704748BF20F8022B11F0AA
:10042000804F18BF00F8012B704770477047704726
:10043000754600F02BF8AE4605006946534620F09D
:100440000700854618B020B5FFF784FFBDE82040BF
:100450004FF000064FF000074FF000084FF0000B80
:1004600021F00701AC46ACE8C009ACE8C009ACE833
:10047000C009ACE8C0098D46704710B50446AFF31B
:1004800000802046BDE81040FFF7EFBE00487047EF
:100490001061002001491820ABBEFEE726000200D3
:1004A0007047000070B50446008AA0F52A41AA39B9
:1004B00029D1207A1D4D10F0FF011B4829D00126BB
:1004C000012921D002291ED1007800281BD102F079
:1004D00083FE002817D0A089686002F0A7FF0220E1
:1004E00003F005F902F0C8FFA0890021401CA0819B
:1004F000A288204602F0DAFEE089002803D00C48EA
:10050000FF218173C67370BD0670BDE8704002F0B4
:1005100063BE0021017002F05FFE60896860BDE883
:10052000704002F083BF00000D010020880F002002
:10053000E8100020FEE7F0B504460DF1140EDDE9E9
:1005400008509EE8C0100480C2711222428081804F
:10055000038146818781A0F80EC00582F0BD0000AE
:100560002DE9F84FCF4D0446CF49A88800F58060AB
:100570000880A178E01DC91F03F03AF9A1798142F2
:1005800003D04FF0FF30BDE8F88FC84A1068401C18
:10059000106094F807C0BCF1140F71D2C448DFF8A2
:1005A0001493DFF814B34FF0FF0A40F2FE3140F22B
:1005B000FD334FF001074FF00006BCF1120F32D2AD
:1005C000DFE80CF03198ADC20927324B667EDB3193
:1005D000F3F2F1F0F4EE2088884201D0984203D182
:1005E000E1896A68914202D0696888421BD1208AF9
:1005F000012809D028882081A888002100F5806082
:100600002080A28820460CE02089286002F00EFF9E
:10061000F2E7218A2046012967D0A988D3E08288A1
:10062000002102F043FE3AE1228820468A4201D0AE
:100630009A4203D1C1896B68994202D069688A42A3
:10064000F1D1018A012901D0A96817E08168BAEBCC
:10065000116F4AD099B3A96047E0228820468A42A8
:1006600001D09A4203D1C1896B68994202D069686E
:100670008A42D8D1018A012903D0E968816034E037
:1006800009E18168BAEB116F2FD0C1B1E9602CE0AC
:10069000228820468A4201D09A4203D1C1896B68E0
:1006A000994202D069688A42BDD1018A012901D0EC
:1006B000298A88E02089002800D02861EFE014E032
:1006C000228820468A4201D09A4203D1C1896B68B0
:1006D000994202D069688A4220D1018A012901D059
:1006E000A98A70E0018901B16961A98801F5806179
:1006F000018094E72088884201D0984208D1E68999
:10070000D5F804C0664506D08E4204D09E4202D081
:100710006968884202D120799076D776BFE0208838
:10072000884201D0984208D1E689D5F804C06645D0
:1007300006D08E4204D09E4202D06968884202D11F
:1007400020799073D773AAE0228820468A4201D08C
:100750009A4208D1C489D5F804C0644506D08C42B9
:1007600004D09C4202D069688A4218D102210181DA
:1007700046818681C7810682B7E72088884201D0FA
:10078000984207D1E2896C68A24206D08A4204D01E
:100790009A4202D06968884201D101F00FFD7EE0E3
:1007A00013E003E01DE049E051E068E0218A2046C3
:1007B000012907D1018911B1012902D002E02E637C
:1007C00000E02F63298E01818FE73C490E603B4991
:1007D00008310E60296B09B10129DED103F0C2F89E
:1007E000DBE72189204611B1012903D004E082F81A
:1007F000236001E082F82370017982F824100096CA
:100800000121438902E00C44491C0094009C8B4266
:10081000F9DADBF800C0644504D1CBF8003082F887
:10082000227008E0A98801F5806101800781828833
:10083000002102F03BFD89F8006030E099F80000EB
:1008400001282CD1204602F03BFC2781D4E62681EA
:10085000A98801F5806121801E2102F0D9FFA288BC
:100860000021204602F022FD154806601548CBF80D
:10087000006006601448066089F800700FE0A988DF
:10088000204601F58061218027813C2161814FF65E
:10089000FF712182C3E602D12046FFF703FE00204C
:1008A00071E60000880F0020A4000020E81000205E
:1008B00000A000080C010020F800002000700020BB
:1008C000EC000020F4000020F0000020704772B619
:1008D000FEE70000014800F02ABF0000E801002008
:1008E000F0B5D1E901650C692C430D68C6B145F03E
:1008F00080452C43D1E90665354391F820704E6957
:10090000406D46EA076635438E8903EBC30300EB6F
:10091000C30045EA0645E0E8024500230B4D0FE021
:1009200044EA8544E6E7D418D65CE77846EA0766E9
:10093000A77864783F0447EA0424264340C01B1D7F
:10094000CC682C5D9C42EED8F0BD00004C45000800
:10095000144A117F1448012901D003290FD10368DB
:1009600023F400730360036843F4006303600368C7
:1009700023F400630360036843F4007303600229F7
:1009800001D003290BD1016841F480510160016855
:1009900021F480510160016841F480610160002010
:1009A000107770471000002000200240C107054862
:1009B00003D0416941F004014161416941F4803152
:1009C000416170470020024008494A69C0B222F4E0
:1009D000FC7242EAC0004861486940F00200486188
:1009E000486940F4803048617047000000200240B0
:1009F000054910B54C6944F001044C610260BFF335
:100A00006F8F436010BD000000200240094A10B5FE
:100A10005469402344F480245461EFF3108272B689
:100A200010C95B1E10C013F0FF03F9D182F31088C8
:100A300010BD00000020024070B5064601F0EEFA3D
:100A40000546134C07E000BF01F0E8FA401BB04236
:100A500001D9032070BD2069C003F5D420694CF290
:100A6000FA3108400CD00B494A6802434A60810FB2
:100A700001D0A169A161810000D02061012070BD79
:100A80002069C00701D001202061002070BD000056
:100A900000200240100000201CB50649802208708A
:100AA000091D0520CDE900010B1F03A1084803F033
:100AB00049FC1CBDE0000020534156455F4D616973
:100AC0006E5F434F4E4649475F444154410000002A
:100AD0001D3200081F4910B5898886B001F5806174
:100AE000ADF800101221ADF802104078ADF8040006
:100AF0000F208DF807000020ADF8080016480821E7
:100B00004068B1EB106F20D1144C012212492046ED
:100B100002F0DCFE104812491C38826802EBD270E9
:100B200020F00100101A00EB800001EBC02102EB65
:100B3000820004EBC0204FF4A06202F0C7FEBDF8B3
:100B400004200021684602F0B1FB002003F0C0FA47
:100B500006B010BD880F00200401002000A000088E
:100B60001011002030B503460F480C460F4980880D
:100B700085B000F5806085B20D804FF6FF70019062
:100B80000290CDE903010090217802222846FFF768
:100B9000D2FC22780021054802F088FB05B0142021
:100BA000BDE8304003F06EBA880F0020B600002088
:100BB0002DE9F047044690F858009CB00E464FF0DF
:100BC0000009012815D0012084F858000025179548
:100BD000189520684FF0A04840450ED1284F009747
:100BE000384602F085F98246206802F081F960B14A
:100BF0000EE002201CB0BDE8F087E06D40F0200060
:100C0000E06584F858500120F4E7BAF1000F09D0EC
:100C1000E06D40F02000E0654FF0010984F8585085
:100C20004846E7E71748326840F61F71002A826895
:100C300022F4604216D094F8383042EA43327368A6
:100C40001A438260D8F80820BB6802F0010203F062
:100C500001031A43E2D1B36832681A4383688B43B5
:100C60001A430BE08260D8F80820BB6802F001024A
:100C700003F001031A43D1D182688A438260CDE731
:100C800000010050000300502DE9F84F00270446F2
:100C9000009790F85800DFF8E0930D46B846012819
:100CA00011D0012684F85860206802F01DF960B167
:100CB000E06D40F02000E0655FF0010784F85880A7
:100CC0003846BDE8F88F0220FBE7D5E900210C2368
:100CD000206803EA91131844036B01F01F014FF0E1
:100CE0001F0C0CFA01FCC2F3846223EA0C038A4055
:100CF00013430363206802F0F7F88246206802F08D
:100D0000EFF85AEA00003CD1AA6829682068B2F1DD
:100D1000004F37D002F0F0F82068416921F000411F
:100D2000416120686969C268C2F3C1025200914002
:100D30002A69042A31D000EB82002B68026EDFF8AA
:100D40003CC303F0F84302EA0C020B431A4342F09F
:100D50000041016620682A69A96900EB8200026EE1
:100D600022F080720A430266297F226828690129DD
:100D700010D0002102EB8000026E22F000720A43C4
:100D800002667DE0002202F0B7F82068416941F078
:100D90000041C5E74FF00071ECE7002102F09AF83E
:100DA000400320684FF0000172D002F093F890FAEF
:100DB000A0F0B0FA80F1286842036ED090FAA0F05B
:100DC000B0FA80F0814204D100221146206802F07E
:100DD000A2F80121206802F07DF8400320684FF05E
:100DE00001015DD002F076F890FAA0F0B0FA80F13F
:100DF0002868420359D090FAA0F0B0FA80F08142FE
:100E000004D100220121206802F085F80221206827
:100E100002F060F8400320684FF0020148D002F071
:100E200059F890FAA0F0B0FA80F12868420344D053
:100E300090FAA0F0B0FA80F0814204D100220221A1
:100E4000206802F068F80321206802F043F84003AC
:100E500020684FF0030133D002F03CF890FAA0F084
:100E6000B0FA80F1286842032FD090FAA0F0B0FACF
:100E700080F0814204D100220321206802F04BF867
:100E80002068816811F0010F22D0ACE000E004E09E
:100E900002F020F8C0F384618DE7C0F3846091E72D
:100EA00002F018F8C0F38461A2E7C0F38460A6E7FB
:100EB00002F010F8C0F38461B7E7C0F38460BBE7C9
:100EC00002F008F8C0F38461CCE7C0F38460D0E797
:100ED0002A7B296850F8B03FC1F3120C23EA0C03B7
:100EE00002F0180C664A22FA0CF20A40134303601F
:100EF000E968494577D1286841031CD090FAA0F1F0
:100F0000B1FA81F1491C01F01F0109294FEA403172
:100F100032D8002912D000BF90FAA0F1B1FA81F1C5
:100F200001F1010101F01F0106FA01F609D100BF2C
:100F3000C0F3846109E0C0F38461E3E7C0F3846136
:100F4000EEE790FAA0F1B1FA81F101F1010101F0AF
:100F50001F0146EA816102D1C0F3846003E090FA88
:100F6000A0F0B0FA80F000F1010000F01F0000EBEB
:100F7000400041EA005132E000290ED090FAA0F181
:100F8000B1FA81F101F1010101F01F0106FA01F648
:100F900006D100BFC0F3846106E0C0F38461F1E7CD
:100FA00090FAA0F1B1FA81F101F1010101F01F0104
:100FB00046EA816102D1C0F3846003E090FAA0F0B8
:100FC000B0FA80F000F1010000F01F002D4A00EBA4
:100FD000400002EB005041EA000141F00071AA68B4
:100FE000206801F089FF28482A6802423FF466AE73
:100FF00026488168264B01F0E0719A4202D0254BC9
:101000009A421CD10B021AD42268B2F1A04F7FF48D
:1010100055AE826841F4000122F0E0720A4382601A
:101020001D481E490068B0FBF1F0401C00EB400079
:10103000800000E0401E00900028FBD13EE6184DE5
:10104000184BAA4207D1CD0105D422689A42F5D0A7
:1010500041F0807109E0144DAA42EFD14A02EDD46B
:1010600022689A42EAD041F48001826822F0E0725C
:101070000A43826022E6000000007F4000F0FF0388
:10108000FFFF0700000020FE000008800003005062
:10109000000021C31000C09030000020400D03006C
:1010A000000052C700010050000084CBF8B54FF09B
:1010B000000504002E46009502D0E06D10B107E057
:1010C0000120F8BD204600F0EBF8266684F8586051
:1010D00020688168C1F3407119B18168684A114084
:1010E000816020688168C1F3007189B98168654AAF
:1010F000114041F080518160634864490068B0FB51
:10110000F1F04000801C00E0401E00900028FBD160
:1011100020688168C1F3007141B9E16D41F01001AF
:10112000E165216E41F001012166012501F0DCFE3F
:10113000E16DC90600D430B1E06D40F01000E0650B
:1011400001252846F8BDE06D20F4807040F00200D3
:10115000E0652068806810F0010F11D14FF0A040C9
:1011600080684B4900F00100896801F001010843E3
:1011700006D148486168826822F47C120A43826082
:10118000E168E06B627F0843A16841EA42310843AD
:1011900094F8241040EA0140012904D1218D3E4AEF
:1011A00002EB41410843E16A29B101F47871226BF5
:1011B000014342EA01002268D168384B19400143DB
:1011C000D16020680169626B21F0406111430161C7
:1011D000206801F085FE70BB207F94F838108003F2
:1011E00040EA41022168C86844F202039843104370
:1011F000C86020690028206801690AD041F4803164
:101200000161206850F8C01F22696FF30D0111437E
:1012100007E021F480310161206850F8C01F6FF3AE
:101220000D01016094F8400001280CD0206801698C
:1012300021F001010161606901282068016B21F042
:101240000F0111D013E0D4E911010843D4E91312BE
:101250001143084321680A6940F2FC739A43104322
:1012600040F001000861E6E7226A521E1143016363
:10127000E06D20F0020040F00100E06561E7000051
:10128000C0FFFF5FC0FFFF7F30000020400D030064
:1012900000010050000300500000FEFF0740F0FF77
:1012A00010B598B00446142111A8FFF797F844210F
:1012B0006846FFF793F82068B0F1A04F26D14FF4AD
:1012C0000040009040030F90684600F0EFFF08B127
:1012D000FFF7FDFA0E48C16C41F40051C164C16CC6
:1012E00001F400511691C16C41F00101C164C06C60
:1012F00011A900F001001690012011900320129016
:10130000002013904FF0904000F05AFD18B010BD2F
:101310000010024030B590F85C30012B07D0022B52
:1013200005D0016E41F002010166012030BD046864
:10133000A36D4D0701D0DD071DD011F0380F01D08E
:101340009D0718D511F4E07F01D05D0713D511F486
:10135000F05F01D01D070ED511F4604F01D0DD06FE
:1013600009D511F4403F01D09D0604D511F47C0F3E
:1013700005D05D0603D4E56D45F00105E5654C0734
:1013800001D0DC071DD111F0380F01D09C0718D413
:1013900011F4E07F01D05C0713D411F4F05F01D0A9
:1013A0001C070ED411F4604F01D0DC0609D411F4EF
:1013B000403F01D09C0604D411F47C0F06D05B069C
:1013C00004D50368DC6D44F00204DC650B0604D52B
:1013D000036853F8DC4F14431C60CB0504D5036845
:1013E00053F8E04F14431C600068426D0A434265A5
:1013F000002030BD70B5044690F85C00022803D090
:10140000206E40F0080007E02068D0F8C4309B024E
:1014100005D5206E40F400702066012070BDD0F824
:10142000C400C0F301452B462046FFF759FA216856
:101430000120A840C1F8CC00A065002070BD10B507
:1014400090F85C20012A07D0022A05D0016E41F0F5
:1014500002010166012010BD0A687AB10B7B0A699E
:101460000C7A42EA43734A69406C496842EA8472E2
:1014700000EBC100C0E90032002010BD0B7A4A69C0
:101480000C8A42EA83720B7B006CDB06496843EAF4
:1014900004431A4340F82120EEE730B590F85C5041
:1014A000039C012D05D0016E41F00401016601206D
:1014B00030BD0901006841EA820141EA430150F868
:1014C000802F214322F03F0211430160002030BDF4
:1014D00090F85C30012B05D0016E41F004010166EB
:1014E00001207047006842EA0121816400207047B2
:1014F00010B590F85C20012A07D0022A05D0016EB1
:1015000041F002010166012010BD0268536D8B435A
:1015100053650B064FF0000202D50368C3F8DC20C8
:10152000C90502D50168C1F8E02003685A6D996DBC
:10153000540701D0CC0725D012F0380F01D08C070A
:101540001CD512F4E07F01D04C0717D512F4F05FE0
:1015500001D00C0712D512F4604F01D0CC060DD586
:1015600012F4403F01D08C0608D512F47C0F01D054
:101570004C0603D5DC6D24F00104DC65530701D073
:10158000CB0722D112F0380F01D08B071DD412F4F3
:10159000E07F01D04B0718D412F4F05F01D00B07A5
:1015A00013D412F4604F01D0CB060ED412F4403F96
:1015B00001D08B0609D412F47C0F01D0490604D463
:1015C0000068C16D21F00201C165002010BD90F8D6
:1015D0005C10012905D0016E41F004010166012073
:1015E00070470068C16841F40001C1600020704785
:1015F000704770470068402905D0D0F8980000BFB8
:1016000000F00F007047D0F89000F9E7F0B590F8BF
:101610005C400025022C03D0016E41F0080160E01F
:101620000468402946D0D4F89860360756D0D4F8DC
:101630009860F60104D5D4F88060F60500D5012540
:10164000D4F89840C4F301246619C46C06EBC605AF
:1016500004EBC504256815F080455560256843D026
:1016600025F06045156025682C4F05F00055956004
:1016700020CC05F00045156134F8045BADB2D561AE
:1016800054F8045CC5F30345D56054F8045C05F4D4
:101690008015556154F8045C05F40015956154F803
:1016A000045CC5F30665156254F8045CED0F5562E1
:1016B000002522E0D4F8906036070FD0D4F890606F
:1016C000F60104D5D4F88060B60500D50125D4F81C
:1016D0009040C4F301246619846CB7E7016E41F4AD
:1016E000807101660120F0BDC5F38A45BAE700BFED
:1016F00014F805C003F805C06D1CD2F80CC017F82B
:101700000CC0AC45F4D80068402903D0C0F89C60F8
:101710000020F0BDC0F89460FAE700004C450008D6
:101720000068D0F8C40000F00700704770472DE94A
:10173000F05F04460068016D426D01F4E05102EA79
:101740000108016D426D01F0070102EA0109016D16
:10175000426D01F0380102EA010A016D476D01F4A2
:1017600071010F40016D426D01F46021456D02EA87
:10177000010B016DCE43710607D4E943490604D439
:10178000402101652046FFF7D1FFF0050ED4E84364
:10179000C0050BD42068D0F8D820D0F8E010114054
:1017A0004FF480720265204600F027FAB8F100007D
:1017B00005D0216808654146204600F020FAB9F1BD
:1017C000000005D0216808654946204600F0AAF9C6
:1017D000BAF1000005D0216808655146204600F0A6
:1017E000F3F9B00509D4E843800506D421684FF425
:1017F00000700865204600F003FA30060DD4E84377
:1018000000060AD42068D0F8D420D0F8DC101140AB
:1018100080220265204600F0F1F9B00409D4E843C3
:10182000800406D421684FF400500865204600F07B
:10183000E3F9300409D4E843000406D421684FF4E6
:1018400000400865204600F0D6F970040AD4E84349
:10185000400407D421684FF480400865206E40F0B2
:1018600080002066BBF1000005D02168086559465C
:101870002046FFF7BEFE27B120680765206E38437B
:101880002066206E002802D02046FFF7B1FEBDE89A
:10189000F09F00002DE9F041040006D0DFF8E88158
:1018A00094F85C00002518B107E00120BDE8F08144
:1018B00084F85D50204600F0EFF82068816921F03F
:1018C0001001816100F0AAFB0646032705E000BF76
:1018D00000F0A4FB801B0A2811D82068806900074B
:1018E000F6D42068816941F00101816100F096FB26
:1018F00006460BE000F092FB801B0A2806D9206EFA
:1019000040F00100206684F85C70CEE720688069B2
:10191000C007EFD02068816941F002018161216830
:10192000414502D1594960680860207C012820683F
:10193000816937D041F040018161607C01282068D5
:10194000816932D021F480418161A07C0128206826
:1019500081692DD041F48051816120688169A2683C
:1019600021F44071114381612068816921F0A40153
:1019700081612068016921F010010161E06801289E
:1019800019D010B302281BD02068816941F0800172
:1019900081612068016941F010010161E06803285C
:1019A0000ED012E021F04001C6E741F48041CBE7C0
:1019B00021F48051D0E72068816941F0040103E0FF
:1019C0002068816941F020018161207EE269400642
:1019D0006FF0FF0101EB0222A0F100701043226AB8
:1019E000A38A521E10430A0202EB034318432368E2
:1019F000D861A068B0F5407F10D1D4E90A0301EBAB
:101A00000321401E0843216B131303EB011108430C
:101A1000A18C02EB014108432168C860206850F89E
:101A2000C01FE26B1143016019482064216851F81E
:101A3000802FA38E22F4F81242EA03420A6014496E
:101A400070316164216851F8802F94F8383022F0A9
:101A5000706242EA03620A600D49B031A1640D4927
:101A6000E1640C49D83121650A49F031616500F51E
:101A7000547120C08842FCD3A5652566012084F8F6
:101A80005C00002012E70000006400400065004098
:101A900000A4004088A5004010B598B00446142169
:101AA00011A8FEF79BFC44216846FEF797FC1B49F2
:101AB0002068884230D18014009040030C90684622
:101AC00000F0F4FB08B1FEF702FF1548816D41F00C
:101AD00000718165816D01F000711691C16C41F05A
:101AE0000101C164C06C002100F0010016904FF4A8
:101AF000C05011900220CDE91201149009201590D8
:101B000011A9C00600F05CF900220621152000F0A2
:101B100023FB152000F013FB18B010BD006400403B
:101B20000010024010B50068244A8AB0904243D1A8
:101B3000C80741D0224C2248A31D6A4640214830A4
:101B4000FFF764FD002837D1009881B22180039807
:101B500080B26080082801D8801D15E00938072868
:101B60002AD2DFE800F00406080A0C0E100012204A
:101B70000AE0162008E01A2006E01E2004E02620D5
:101B800002E0362000E0462060800E48006838B948
:101B9000A1F54070FE3803D0A1F54070FD3804D1A6
:101BA0000120A0800648FEF7DBFC054840214830B4
:101BB000FFF720FD0028BED10AB010BD0064004030
:101BC000A0010020880F0020704790F85C100129C8
:101BD00005D0016E41F00401016601207047022129
:101BE00080F85C1001688A6922F001028A61002194
:101BF00001660846704770477047704770477047E6
:101C0000704700002DE9F05F0546314889460178AC
:101C100001290CD00126804606704FF47A7B584685
:101C2000FEF70AFF07004FF0000A03D04BE0022046
:101C3000BDE8F09F51464046C8F804A0254C2268F4
:101C400092050AD52168490505D5216821F48061EE
:101C50002160032109E0067708E02268520504D5D7
:101C6000216821F480612160022101772868012820
:101C700005D04FF0FF31C9F80010AE681CE068686D
:101C8000FEF794FE5846FEF7D7FE0746606920F03F
:101C90000400606115E030466968FEF795FE58461D
:101CA000FEF7CAFE0700606920F4FD70606102D093
:101CB000C9F8006005E0761CD5E902010844B0428D
:101CC000E9D8FEF745FE88F800A03846B0E70000E6
:101CD0001000002000200240054901204A6942F01E
:101CE00000424A614969002900DA0020704700007B
:101CF000002002402DE9FF5F254C064690462078E3
:101D00009A4601280BD0012020704FF47A7B584668
:101D1000FEF792FE07004FF0000904D02AE00220EF
:101D200004B0BDE8F09F4846C4F80490194D2968F6
:101D3000490504D5286820F48060286002202077B7
:101D400026B1012E09D0022E07D00CE042465346A0
:101D50000198FEF74DFE012612E041460198FEF77C
:101D600055FE022E0AD05846FEF766FE4FEA0007DF
:101D7000FEF7EEFD84F800903846D1E74FF4802658
:101D80005846FEF759FE07466869B0436861EFE7B9
:101D90001000002000200240064900204A69002A65
:101DA00007DA054A8A60054A8A604969002900DA2B
:101DB000012070470020024023016745AB89EFCD29
:101DC0002DE9F04FDFF82092002301260324A9F12A
:101DD000040B85B00F2709F1040AABF1040EFAE0F9
:101DE00006FA03F52A407CD091F804C00CF0030CED
:101DF000BCF1010F02D0BCF1020F26D1D0F808C00F
:101E0000CDF800C04FEA430C04FA0CF8CDF810C02E
:101E1000DDF800C02CEA080CCDF800C0D1F80C8029
:101E2000DDF810C008FA0CF8DDF800C048EA0C082C
:101E3000C0F80880D0F804C02CEA050C0D79C5F371
:101E400000159D4045EA0C0545600D79ED43AD0751
:101E50000ED0C5684FEA430804FA08FC25EA0C05D1
:101E6000D1F808C00CFA08FC4CEA050CC0F80CC00C
:101E70000D7905F00305022D16D1DD0800EB850C68
:101E8000CDF808C0DCF820805D074FEAD56C07FA72
:101E90000CF528EA05080D6905FA0CF5DDF808C00F
:101EA00045EA0805CCF8205005684FEA430CCDF808
:101EB00008C004FA0CFC25EA0C0591F804C00CF0EB
:101EC0000308DDF808C008FA0CF848EA0508C0F86D
:101ED00000804D6815F4403F7CD0444DD5F860C07B
:101EE00000E077E04CF0010CC5F860C02D6E23F0E7
:101EF000030C05F0010500953D4D65440295AD6864
:101F00004FEA837C4FEA1C7807FA08FC25EA0C05A7
:101F1000B0F1904F06D0DFF8DCC0604505D14FF03E
:101F2000010C20E04FF0000C1DE0DFF8CCC0604554
:101F300002D14FF0020C16E0DFF8C0C0604502D1BC
:101F40004FF0030C0FE0DFF8B8C0604502D14FF04E
:101F5000040C08E0DFF8ACC0604502D14FF0050C7E
:101F600001E04FF0060C0CFA08FC4CEA050C029D4F
:101F7000C5F808C0D9F80050CC46D1F80480954384
:101F80005FEAC82800D51543CCF80050DAF80050B5
:101F9000D446D1F8048095435FEA882800D51543DC
:101FA000CCF80050DBF80050DC46D1F804809543B3
:101FB0005FEA883800D51543CCF80050DEF80050B1
:101FC000F446D1F8048095435FEAC83800D515433C
:101FD000CCF800505B1C0A6832FA03F57FF400AFBE
:101FE00005B0BDE8F08F0000080401400010024079
:101FF000000001400004004800080048000C0048B0
:1020000000100048001400480069084000D001207A
:1020100070470AB1816170478162704701488068EA
:1020200070470000040000200248816842681144A3
:10203000816070470400002010B50024032000F0E8
:10204000ABF80F2000F008F808B1012401E000F01F
:1020500047F8204610BD000030B505461B4887B044
:10206000816D41F020018165806D06A900F020009E
:10207000009001A800F04EFB00F06CFB1449154ADB
:10208000B0FBF1F11448491E0260416040F2E732B2
:102090000021C0E90321816000F0B3FD040012D1EA
:1020A0000D4800F0E1FD04000DD1372000F047F8A5
:1020B000102D07D200222946372000F04DF807489E
:1020C000056000E0012407B0204630BD001002404A
:1020D00040420F00001400404C0200200400002089
:1020E0000D4808B5016E41F001010166016E01F075
:1020F00001010091816D41F080518165806D002268
:1021000000F0805000900F21901E00F025F8BDE8EF
:10211000084000F0C3B800000010024000280DDBAA
:1021200000F01F02012191404009800000F1E020F1
:10213000C0F88011BFF34F8FBFF36F8F7047002837
:1021400009DB00F01F02012191404009800000F1ED
:10215000E020C0F800117047F0B40E4B1B680C462D
:10216000C3F30223C3F10705042D00D90425191D6B
:10217000072901D2002300E0DB1E012606FA05F143
:10218000491E214099409E40761E16403143F0BCC6
:1021900001F0CDBA0CED00E0064900F00702086836
:1021A0004FF6FF03184040EA0220034A104308603C
:1021B000704700000CED00E00000FA05BFF34F8F00
:1021C00005480168054A01F4E06111430160BFF36D
:1021D0004F8F00BFFDE700000CED00E00400FA05A2
:1021E0002B492C4B0A6832214A432B4940B1B0F5A8
:1021F000007F086829D020F4C06040F480602CE0A3
:102200000868C0F34120022804D051F8800F20F460
:10221000807022E0D1F8800020F48070C1F8800046
:10222000086820F4C06040F400700860B2FBF3F06E
:10223000401C00E0401E4A69520501D50028F9D132
:10224000486940050AD503207047C0F341200228A1
:1022500006D051F8800F40F480700860002070476D
:10226000D1F8800040F48070C1F88000086820F444
:10227000C06040F400700860B2FBF3F0401C00E066
:10228000401E4A695205DBD50028F9D1D8E7000085
:102290003000002040420F0000700040024881687A
:1022A00041F4804181607047007000402DE9F8439F
:1022B0000446006800269D4D00035ED5A86D0027EA
:1022C000C00008D4A86D40F08050A865A86D012713
:1022D00000F080500090DFF85892D9F8001041F4D7
:1022E0008071C9F80010FFF799FE804606E000BF34
:1022F000FFF794FEA0EB080002282BD8D9F80000C5
:10230000C005F5D5D5F8900010F4407014D0216CBC
:10231000814211D0D5F89000D5F8901020F440708B
:1023200041F48031C5F89010D5F8901021F4803137
:10233000C5F89010C5F89000C00711D0FFF76EFEE9
:102340008046DFF8F09107E0FFF768FEA0EB080198
:10235000494501D903260BE0D5F890008007F3D555
:10236000D5F89000216C20F440700843C5F8900027
:102370001FB1A86D20F08050A8652078C00707D055
:10238000D5F88800616820F003000843C5F888008C
:102390002078800707D5D5F88800A16820F00C00C8
:1023A0000843C5F888002078400707D5D5F888008D
:1023B000E16820F030000843C5F888002078000765
:1023C00007D5D5F88800216920F0C0000843C5F87A
:1023D00088002078800607D5D5F88800616920F448
:1023E00040600843C5F888002078400607D5D5F836
:1023F0008800A16920F440500843C5F8880020787F
:10240000000607D5D5F88800E16920F4404008436C
:10241000C5F888002088C00507D5D5F88800216A4E
:1024200020F440300843C5F888002088800507D58F
:10243000D5F88800616A20F440200843C5F8880078
:10244000208840050FD5D5F88800A16A20F44010F7
:102450000843C5F88800A06AB0F5801F03D1E8687A
:1024600040F48010E860208800050FD5D5F888007A
:10247000E16A20F440000843C5F88800E06AB0F53E
:10248000800F03D1E86840F48010E8602088C00421
:102490000FD5D5F88800216B20F040700843C5F8AF
:1024A0008800206BB0F1807F03D1E86840F4801091
:1024B000E86020884FF0006180040ED5D5F88800D0
:1024C000626B20F040601043C5F88800606B884262
:1024D00003D1E86840F48010E860208840040ED5FD
:1024E000D5F88800A26B20F040601043C5F8880042
:1024F000A06B884203D1E86840F48010E86020882F
:1025000000040FD5D5F88800E16B20F04050084357
:10251000C5F88800E06BB0F1805F03D1E86840F453
:102520008030E8603046BDE8F883000000100240CB
:1025300000700040FFC99A3B2DE9F0470E460500A8
:102540004FF0000725D0DFF8AC81D8F8000000F08C
:102550000F00B0420CD2D8F8001021F00F01314327
:10256000C8F80010D8F8000000F00F00B04210D1F9
:102570002968614CC80741F2883A5AD06868DFF888
:102580007C91032808D0022820682DD0400500281F
:102590002CDB0120BDE8F08720688001F9D5E068D8
:1025A00000F00302E068C0F30310401C032A19D0B6
:1025B000534A00BFB2FBF0F0E268C2F30622504378
:1025C000E268C2F34162521C5200B0FBF2F048458F
:1025D00017D9A06810F0F00F0CD0880711D5A868A3
:1025E00040B10EE0474AE5E78003D0E700F0C4F8C9
:1025F000484506D9A06820F0F00040F08000A060B7
:102600008027A068696820F003000843A060FFF7F6
:1026100005FD814606E000BFFFF700FDA0EB0901C4
:1026200051453AD8A068696800F00C00B0EB810F02
:10263000F2D12868810714D5400703D5A06840F47B
:10264000E060A0602878000705D5A06820F46050FD
:1026500040F4E060A060A068A96820F0F0000843A2
:1026600004E0802F03D1A06820F0F000A060D8F82B
:102670000010404601F00F01B14216D9016821F067
:102680000F0131430160FFF7C9FC074607E000BFB7
:10269000FFF7C4FCC11B514501D903207AE7D8F8E4
:1026A000000000F00F00B042F2D12878400705D5B5
:1026B000A068E96820F4E0600843A060287800077B
:1026C00006D5A068296920F4605040EAC100A060E6
:1026D00000F052F8A1680C4AC1F30311515C01F0FB
:1026E0001F01C8400949086009480068BDE8F04773
:1026F000FFF7B2BC002002400010024000B4C40446
:102700000024F40000127A005C450008300000202C
:10271000040000200F2202600C4A936803F00303B8
:102720004360936803F0F0038360936803F4E0630D
:10273000C36092684FF4E06303EAD2020261044886
:10274000006800F00F0008607047000000100240B1
:10275000002002400548064900688968054AC1F31F
:102760000221515C01F01F01C84070473000002079
:10277000001002406C450008184910B58868C0F385
:1027800081021748012A0BD08A684310C2F38102E4
:10279000022A06D08A68C2F38102032A03D00020ED
:1027A00010BD184610BDCA6802F00304CA68C2F31F
:1027B0000312521C032C02D0B0FBF2F001E0B3FB79
:1027C000F2F0CA68C968C2F306225043C1F34161FE
:1027D000491C4900B0FBF1F010BD000000100240A0
:1027E0000024F4002DE9F84304007AD02078FA4E52
:1027F000FA4DC00746D0A868E96800F00C0001F067
:1028000003010C2802D0082817D001E0032914D0B6
:102810006068B0F5803F17D0B0F5A02F286817D0BA
:1028200020F480302860286820F4802028606068C8
:10283000D8B1FFF7F3FB074613E02868800321D5E2
:1028400060680028D1D01DE0286840F48030EDE7B2
:1028500040F480202860F7E7FFF7E0FBC01BB042A0
:1028600070D828688003F7D50CE0FFF7D7FB074640
:1028700005E000BFFFF7D2FBC01BB042F0D82868CC
:102880008003F7D4207880074CD5A868E96800F069
:102890000C0001F003010C2802D004280DD001E047
:1028A00002290AD0E068002828682BD040F4807004
:1028B0002860FFF7B3FB074619E02868400502D5FA
:1028C000E068002891D06868217C20F0FE4040EA52
:1028D00001606860C2480068FFF7BEFB002800D1B5
:1028E00020E076E1FFF79AFBC01B0228B8D82868E1
:1028F0004005F7D56868217C20F0FE4040EA016081
:1029000068600FE020F480702860FFF787FB0746BF
:1029100005E000BFFFF782FBC01B0228A0D8286893
:102920004005F7D42078000729D560690028D5F83C
:10293000940013D040F00100C5F89400FFF76EFB3F
:10294000074606E084E000BFFFF768FBC01B0228D3
:102950007ED8D5F894008007F6D510E020F001006D
:10296000C5F89400FFF75AFB074604E0FFF756FB53
:10297000C01B02286CD8D5F894008007F6D42078C4
:10298000400764D5A86D0027C00008D4A86D40F0AA
:102990008050A865A86D012700F0805000909148F4
:1029A0000168C90512D40168814641F48071016053
:1029B000FFF734FB804605E0FFF730FBA0EB080093
:1029C000022845D8D9F80000C005F5D5A06801282F
:1029D00014D00528D5F8900015D020F00100C5F8D6
:1029E0009000D5F8900020F0040000BFC5F89000DA
:1029F000A068C0B1FFF712FB80460FE0D5F8900049
:102A000040F00100F2E740F00400C5F89000F5E75F
:102A1000FFF704FBA0EB0800B04219D8D5F89000EE
:102A20008007F5D50EE0FFF7F9FA804606E000BF13
:102A3000FFF7F4FAA0EB0800B04209D8D5F89000EF
:102A40008007F5D41FB1A86D20F08050A86500E084
:102A500085E02078800628D5A0690028D5F8980060
:102A600012D040F00100C5F89800FFF7D7FA0646EB
:102A700005E000BFFFF7D2FA801B02286FD8D5F817
:102A800098008007F6D510E020F00100C5F8980006
:102A9000FFF7C4FA064604E0FFF7C0FA801B0228DD
:102AA0005DD8D5F898008007F6D4E069F0B3A9683E
:102AB000C1F3810103295DD00228286820F08070CD
:102AC000286003D0FFF7AAFA04464BE0FFF7A6FA06
:102AD000064604E0FFF7A2FA801B02283FD82868C8
:102AE0008001F7D4F4E908016FF00F0202EB011145
:102AF0000843218A5204490802EB4151A26841EA85
:102B000002210843217D4FF07E42490802EB4161DA
:102B10000843217B40EAC160E968334A1140084319
:102B2000E860286840F08070286000E060E0E868B5
:102B300040F08070E860FFF771FA044605E000BFDE
:102B4000FFF76CFA001B022809D828688001F7D526
:102B50004EE000BFFFF762FA001B022802D90320F3
:102B6000BDE8F88328688001F4D4E8681F4908406C
:102B7000E8603DE00128F3D0E868226A00F0030134
:102B8000914226D1616A00F0F002090110399142A8
:102B90001FD1A26A00F4FE41B1EB022F19D194F8C3
:102BA0002C2000F07841B1EBC26F12D1218E00F4DD
:102BB000C00249084905A1F50011914209D194F8D4
:102BC000341000F0C06049084906A1F1007181424B
:102BD0000ED00120C4E70000FFC99A3B001002405C
:102BE00004000020007000400C809F01FCFFEEFEFE
:102BF0000020B5E7704770477047704770477047CF
:102C0000704710B5040003D094F83D0010B107E000
:102C1000012010BD002084F83C00204600F022F87E
:102C2000022084F83D00211D206800F0BFFC012037
:102C300084F8480084F83E0084F83F0084F840009F
:102C400084F8410084F8420084F8430084F844008A
:102C500084F8450084F8460084F8470084F83D0075
:102C6000002010BD7047000090F83D10012901D0F0
:102C700001207047022180F83D100168CA6842F0C7
:102C80000102CA600068104988420ED0B0F1804F3E
:102C90000BD00E49884208D00D49884205D00D4915
:102CA000884202D00C49884207D181680B4A114002
:102CB000062906D0B1F5803F03D0016841F001013B
:102CC0000160002070470000002C0140000400401B
:102CD00000080040003401400040014007000100AE
:102CE0000168CA6822F00102CA6001680A6A41F2FA
:102CF00011131A4207D10A6A9B001A4203D10A68CB
:102D000022F001020A60012180F83D100020704786
:102D100070472DE9F04104460068C66805694FF028
:102D20000007A90713D5B10711D5F91E01610120CC
:102D30002077206880698007204602D0FFF7E8FFEF
:102D400004E000F0B7F8204600F0B5F827776807F0
:102D500016D5700714D521686FF0040008610220B1
:102D600020772068806910F4407F204602D0FFF76A
:102D7000CFFF04E000F09EF8204600F09CF8277793
:102D8000280715D5300713D521686FF008000861B2
:102D9000042020772068C0698007204602D0FFF712
:102DA000B7FF04E000F086F8204600F084F82777AB
:102DB000E80616D5F00614D521686FF010000861FA
:102DC000082020772068C06910F4407F204602D098
:102DD000FFF79EFF04E000F06DF8204600F06BF86E
:102DE0002777E80708D0F00706D021686FF00100C8
:102DF0000861204600F060F8280601D4A80408D530
:102E0000300606D521686FF4025008612046FFF7AE
:102E1000F2FEE80508D5300606D521686FF480700B
:102E200008612046FFF7E6FE680608D5700606D55D
:102E300021686FF040000861204600F047F8A806BE
:102E400008D5B00606D521686FF02000086120463D
:102E5000FFF7D2FEE80208D5F00206D521686FF42C
:102E6000801008612046FFF7C9FEA80208D5B0020D
:102E700006D521686FF4001008612046FFF7BDFEFB
:102E8000680208D5700206D521686FF480000861D9
:102E90002046FFF7B4FE28020AD5300208D5216883
:102EA0006FF4000008612046BDE8F041FFF7A8BEBE
:102EB000BDE8F0817047704700680349884201D13E
:102EC000FFF7B2B870470000001400407047FFF7EA
:102ED00075F9FCE700EB8100006E00F0F8407047E8
:102EE0008068C0F3C00070478068C0F380007047FE
:102EF0008068C0F380007047042303EAD15310B503
:102F000018444369C1F3045107248C40A3438A4009
:102F10001343436110BD00EB8100016E21F00041BD
:102F2000114301667047000030B58BB0002408944F
:102F30000994202168460A94FDF750FA1C484FF086
:102F4000A041042501608912C0E90114C460046134
:102F5000C0E90545047744770121016280F82440E7
:102F6000C462046380F83840C46380F84040FEF7D0
:102F70009DF808B1FDF7ABFC08A90D480894FDF7D2
:102F800017FE08B1FDF7A3FC0A4800900620CDE922
:102F900001047F200594CDE9030569460448FDF747
:102FA00073FE002801D0FDF792FC0BB030BD00008D
:102FB0001001002002003004144810B512490160CD
:102FC00000214FF44072C0E901120122C160027475
:102FD000417400F1140C817410233F248CE81C0010
:102FE000C0E9083208221F23C0E90A230263042231
:102FF000C0E90D21C163FEF74DFC002803D0BDE8F8
:103000001040FDF764BC10BD00640040E8010020E2
:1030100000B585B0142206496846FDF7ADF90021D8
:10302000684600F0F4FC0349086005B000BD0000EC
:10303000384500080000002030B587B014216846EC
:10304000FDF7CCF91B48C16C41F02001C164C16C93
:1030500001F020010591C16C41F00101C164C16C16
:1030600001F001010591C16C41F00201C164C06C25
:103070004FF4807400F002004FF09045059000225C
:1030800021462846FEF7C5FF0120CDE90040002477
:103090000294694628460394FEF792FEC020CDE9CB
:1030A00000040220029069460348FEF789FE07B03B
:1030B00030BD00000010024000040048FEE70000A0
:1030C0002DE9F041294C01896269914240D0226981
:1030D0004FF420560A44C4E904210022244919E08F
:1030E0006568871895FBF6F303EBD37C2CF0010C95
:1030F000A3EB0C0CA3605B4203EB83030CEB8C0C87
:1031000005EBC32301EBCC2CBF7A6D1C0CF80370CC
:10311000521C656043880A3B9342E1DCD4E90220FB
:10312000904215D0B0B100EBD07222F00102821AA9
:1031300002EB820201EBC2210E4A00EB800002EB9F
:10314000C0204FF4A06200BF00F0C0FBA068E060A8
:10315000BDE8F081054804C91C30026004C9426022
:10316000044840F2FF420830EEE70000E80000208B
:103170001011002000A00008FEE700001CB508495F
:103180000278074B0A704078487018310520CDE965
:103190000001802203A1074801F0D4F81CBD000003
:1031A000E8000020466C6173685F55706461746567
:1031B00000000000D50A000800B560220449054857
:1031C00000F09AFE024800218161C16100BD00004B
:1031D000880F002000D8010810B586B01421684679
:1031E000FDF7FCF8C02000900020019002200A4C5E
:1031F000029069462046FEF7E3FD40212046FEF797
:1032000003FF28B980212046FEF7FEFE002800D0EB
:10321000012006B010BD00000004004810B50446AF
:103220000C2201230649074800F014FB2146022026
:10323000FDF798FCBDE81040002000F049BF0000F9
:10324000880F002000D8010830B587B00024CDE9F0
:1032500001420222039201220492CDE905011D469A
:1032600001A91148FEF7EBF8C5B10222002311466F
:103270000D480094FEF711F90B48FEF7A8F90A482B
:103280000122C16AFEF724F90748FEF79EFC0022DE
:1032900001210548FEF73EF807B030BD0121024884
:1032A000FEF726F9F8E70000E801002070B50D4EA2
:1032B00015460446012912D089B9A178E01DC91F1D
:1032C00000F096FAA0713068022800D03DB1012DBF
:1032D00005D1A2782088A11D921F00F039FA0020A4
:1032E00070BD0000880F00202DE9F041DFF8348127
:1032F00006464D4DB8F8040086B000F5806080B2F7
:10330000288000270121CDE90171CDE903750097DF
:10331000317802230322FDF70EF932780021284686
:10332000FFF7C4FF4FF6FF74CDE9024704950194FF
:103330000094B8F80000317883B228880422FDF7A1
:10334000FAF8327800212846FFF7B0FF022000F09B
:1033500099FECDE90247049501940094B8F8040061
:10336000317883B228880522FDF7E5F8327800210C
:103370002846FFF79BFFCDE902470495019400948E
:10338000B8F81400317883B228880922FDF7D3F801
:10339000327800212846FFF789FF022000F072FEF4
:1033A000CDE90247049501940094B8F810003178F3
:1033B00083B228880822FDF7BEF83278002128461B
:1033C000FFF774FFCDE9024704950194009431782A
:1033D000288823460622FDF7AEF8D8F80800A86032
:1033E000327800212846FFF761FF022000F04AFEF4
:1033F000CDE902470495019400943178288823464A
:103400000722FDF798F8D8F80C00A8603278002160
:103410002846FFF74BFF06B00020BDE8F04100F062
:1034200057BE0000880F0020C800002070B511486A
:1034300040F2FE354FF6FF7401686E1EA1B1002305
:1034400040681A464FEA0401FFF7FEFE00230122FE
:1034500021462846FFF7F8FE21463046BDE8704079
:1034600001230222FFF7F0BE00231A461946184630
:10347000EAE70000880F002010B586B014216846E6
:10348000FCF7ACFFC02000900120019000200290CA
:103490000320064C039069462046FEF791FC01226A
:1034A000C0212046FEF7B5FD06B010BD000400485F
:1034B0004FF47A74204600F09EFAFBE71CB50649EB
:1034C00080220870091D0520CDE900010B1F03A112
:1034D000084800F037FF1CBD9C00002053656E6457
:1034E0005F414C4C5F4D61696E5F434F4E464947AB
:1034F00000000000E932000810B5502080F3118868
:10350000BFF34F8FBFF36F8F00F048FF18B104492E
:103510004FF080500860002080F3118810BD00003B
:1035200004ED00E010B594B038216846FCF756FF72
:1035300014210EA8FCF752FF0020FEF751FE0120D7
:103540004FF4A0210324CDE90001CDE90840282053
:103550000A90082002210B9007910420CDE90C016C
:103560006846FFF73FF908B172B6FEE70F20CDE9D4
:103570000E04002010901190129004210EA8FEF766
:10358000DBFF002801D072B6FEE714B010BD0000CA
:103590000248016841F470010160704788ED00E065
:1035A0000148FFF7B6BB00004C0200202DE9F043B4
:1035B0000268264B264D274E274C4FF080499842F3
:1035C00007D0484505D0A84203D0B04201D0A04260
:1035D00003D122F070074A683A43204FDFF880C0D9
:1035E000DFF8808098420DD048450BD0A84209D022
:1035F000B04207D0A04205D0B84203D0604501D008
:10360000404503D122F44075CA682A434D6922F02F
:1036100080022A4302608A68C2620A688262984213
:1036200007D0A04205D0B84203D0604501D0404544
:1036300001D109690163012141610169C90703D011
:10364000016921F001010161BDE8F083002C014016
:1036500000040040000800400034014000400140E8
:10366000004401400048014010B500F061F9FFF747
:10367000A3FD19481949406B884211D01649012011
:103680000860782048600020086248628862C8624A
:103690000863124848631249FF2088730120C873E9
:1036A0000D4902200860FFF7C1FE0E4C0B4920684F
:1036B00088420DD00848006B18B90B4800F052F949
:1036C00006E00548006B012802D1074800F04AF9DE
:1036D00000F0F0FB10BD0000880F00207856341277
:1036E000E81000200070002000A00008FEE785B070
:1036F000002100EBC00202EB00120846009111E02D
:10370000039102910298034640430490581C029092
:103710000A28F7DB0398401C03900628F1DB009889
:10372000401C0090B0EB820FEADB05B07047090740
:10373000090E002804DB00F1E02080F80014704737
:1037400000F00F0000F1E02080F8141D7047000029
:1037500070B5264B0D461860002058609860082A06
:1037600002D003DC072A11D8DA6016E0182A28D024
:1037700006DC0C2A0DD0102A0DD0142A06D11EE02A
:10378000202A20D0302A20D0402A20D04FF0FF30ED
:1037900070BD092100E00A21D96018614FF4801042
:1037A0005861400098618000D861012040F6FF74A4
:1037B00018620E486C30FDF7B3FF50B10CE00B21DE
:1037C000EAE70C21E8E70D21E6E70E21E4E70F2107
:1037D000E2E7641EA4B2ECD22CB104492A4601F1FE
:1037E0006C00FDF707FE002070BD00007C0100208A
:1037F00010B502460020054B04E000BF12F8014B53
:103800004440185D491EF9D210BD0000E80F0020A9
:1038100030B585B00C460546FEF7BEFA88B9A5F16D
:103820000065E80A011940290BD800210491009194
:1038300001210394CDE9011004A96846FEF7E2F9DD
:1038400020B1FEF749FA012005B030BDFEF744FA79
:103850000020F9E72DE9F04116460F460446B2EB89
:10386000032F02D90120BDE8F081A4F10060B0F57A
:10387000003F01D2600501D00220F4E7600701D0CB
:103880000320F0E719462046FFF7C2FFFEF784FA4F
:103890000D494FF40040086100250FE007EBC5001B
:1038A0002146D0E900230020FEF724FA18B1FEF7E4
:1038B00013FA0420D7E76D1CADB20834B542EDD33E
:1038C000FEF70AFA0020CEE7002002402DE9F04181
:1038D0000446A0F1006016460F46B0F5003F02D343
:1038E0000220BDE8F081600701D00320F9E7FEF770
:1038F00053FA0E494FF400400861002510E000BF64
:1039000007EBC5002146D0E900230020FEF7F2F9BD
:1039100018B1FEF7E1F90420E3E76D1CADB20834FD
:10392000B542EDD3FEF7D8F90020DAE700200240D7
:1039300030B500210A4C0723C8B20022050602D583
:1039400083EA400000E04000521CD2B2C0B2082A14
:10395000F4D36054491C89B2FF29EDD930BD000071
:10396000E80F002070B50546406800240821B1EB3F
:10397000106F22D11148FFF7B3F93720FEF7CEFBC5
:1039800072B600204FF0E021086148618861411E55
:10399000A00000F1E020C0F88011C0F88012641C83
:1039A000E4B2082CF4D3002080F31488286880F354
:1039B00008886868BDE87040004770BD4C02002070
:1039C000FEF73AFBFFF7AEFD0A20FFF790FEFFF788
:1039D00033FBFFF7F1FAFFF7A7FA62B6FFF744FEF1
:1039E000FFF716FB00F00EF8FEE7014600208429E1
:1039F00000D0C81C704710B500B9012000F042FB90
:103A0000002010BD10B500F0B9FB002010BD3EB580
:103A100004460D46B0F90800FFF7E7FF02A9CDE91B
:103A20000001208A2B4682B2D4E9001000F08AFC03
:103A3000012801D000203EBD02983EBD2DE9F04195
:103A4000184C0F460546E6682068001D00F05DFA38
:103A500038B9206890F82C100120884021698143F2
:103A60002161681C07D137B12168BDE8F0410E48DB
:103A7000091D00F083BA20683544B54245602168CD
:103A800005D2A06BBDE8F041091D00F05FBA606B84
:103A9000091D00F05BFAA06A854200D2A562BDE86C
:103AA000F081000034000020740300202DE9F04173
:103AB000054600F06FFA2E4CA068401CA0602068FC
:103AC0002C4F10B1606940B32DE02560A06801283B
:103AD00029D1002606EB860007EB800000F028FACB
:103AE000761C072EF6D323488C3000F021FA2148AB
:103AF000A03000F01DFA1F48B43000F019FA1D483C
:103B0000C83000F015FA1B48DC3000F011FA1948F3
:103B10008C3060631430A06305E02068E96AC06AF5
:103B2000884200D82560606A401C6062E96A012012
:103B3000226988401043206101EB810007EB80007F
:103B4000291D00F01BFA00F045FA606900280CD02E
:103B50002068E96AC06A884207D207494FF080505E
:103B60000860BFF34F8FBFF36F8FBDE8F081000097
:103B7000340000209802002004ED00E010B5044657
:103B8000006B00F03BFA2046BDE8104000F036BA6A
:103B900010484FF44061420706D0C01D0D4920F087
:103BA0000700411AC1F540610B4A00230144C2E9F4
:103BB00000030839183A21F0070111604B600B60CF
:103BC0000B1AC0E9001393604FF00040536050613E
:103BD000704700008803002088000020144E154C18
:103BE000A6F1C8074FF08058DFF84C9012E000BFF4
:103BF00000F0D0F9F068C568281D00F086F9A068CB
:103C0000401EA0606068401E606000F0E3F9284636
:103C1000FFF7B4FF60680028EAD138680128F9D9B5
:103C2000C9F80080BFF34F8FBFF36F8FF2E700003A
:103C3000600300203400002004ED00E02DE9F0478F
:103C40009A46DDE9098481466FF00303206B03EB9C
:103C500082021044089E20F00707780707D0502002
:103C600080F31188BFF34F8FBFF36F8FFEE70025FE
:103C700061B1002023180A5C83F834200A5C12B179
:103C8000401C1028F6D384F8435001E084F83450E7
:103C9000072E00D30626E662C4E91165201D00F058
:103CA00052F904F1180000F04EF92461C6F1070042
:103CB0006462A061E56484F8505052464946384633
:103CC00000F0C0F82060B8F1000F01D0C8F8004043
:103CD000BDE8F08730B5114900E011460A6882421C
:103CE000FBD34B685C18844203D140681844486099
:103CF000084643681C18944209D1084C183C2468B3
:103D0000A24209D052681A4442600A6812680260EE
:103D1000814200D0086030BD0460F9E788000020CF
:103D20000648416B096829B1416BC968C96849688F
:103D3000816270474FF0FF31FAE700003400002045
:103D400008484068401C4FF0500080F3118804D0B0
:103D5000BFF34F8FBFF36F8FFEE7BFF34F8FBFF3FC
:103D60006F8FFEE7900000202DE9F0410546002707
:103D700000F038FA324E306808B9FFF709FF706971
:103D800005424ED1C5B3083568070ED005F00700CF
:103D9000C0F108000544680707D0502080F311885F
:103DA000BFF34F8FBFF36F8FFEE72DB3706885426F
:103DB00037D82348183001460C6801E020460C46ED
:103DC0006168A94202D221680029F7D131688C428A
:103DD00027D007682168016060680837411B1029F7
:103DE0000FD96019420708D0502080F31188BFF323
:103DF0004F8FBFF36F8FFEE713E041606560FFF701
:103E000069FF61687068401A7060B268904200D2C1
:103E1000B060706901430020C4E90001F068401CF3
:103E2000F06000F021FB780707D0502080F3118864
:103E3000BFF34F8FBFF36F8FFEE73846BDE8F081C9
:103E40007000002010B5031F4FF080741C601B1F12
:103E500021F001011960191F044B0B6014390A602D
:103E6000091F6FF0020244380A6010BD413D00088E
:103E70000F4C002504F1230625600A20FFF7BBFD47
:103E8000E07E012803D1A07EFFF718FBE576E07BFA
:103E9000012803D1A07BFCF7FFFDE57394F8220015
:103EA0000128EAD184F822503046FFF767F9E4E7A9
:103EB000E81000201CB528210648FCF78FFA0649B7
:103EC0000520CDE900010023802204A1094800F06B
:103ED00039FA1CBDE8100020DC0000207461736B0F
:103EE0005F73746172745F736572766963655F4650
:103EF00000000000713E000804E000BF10F8013B24
:103F000001F8013B521EF9D27047D0E90132016934
:103F10009A60D0E901235A604A68824201D18268DE
:103F20004A60002202610868401E08600868704705
:103F300000F108014FF0FF32C0E90112C1600161D8
:103F400000210160704700210161704730B50B68A6
:103F50005A1C02D000F1080202E0026904E0224685
:103F6000546825689D42FAD953684B6099608A600D
:103F7000516008610168491C016030BD42684A60B7
:103F800093688B6093685960916008610168491C6F
:103F900001607047502080F31188BFF34F8FBFF34B
:103FA0006F8F0A494868401C486001280CD10848B6
:103FB000006810F0FF0F07D0502080F31188BFF386
:103FC0004F8FBFF36F8FFEE7704700009000002017
:103FD00004ED00E00849486828B1401E486001D15E
:103FE00080F311887047502080F31188BFF34F8F02
:103FF000BFF36F8FFEE700009000002070B500282F
:104000002AD0164DA0F1080460686969084207D1FA
:10401000502080F31188BFF34F8FBFF36F8FFEE7FF
:1040200022683AB1502080F31188BFF34F8FBFF35D
:104030006F8FFEE78843606000F0D4F860686968BD
:10404000084468602046FFF745FE2869401C286147
:10405000BDE8704000F008BA70BD0000700000209C
:104060004FF0E02000210161816105494FF47A722F
:104070000968B1FBF2F1491E4161072101617047F6
:104080003000002010B5020014D00F48006B38B18A
:10409000502080F31188BFF34F8FBFF36F8FFEE77F
:1040A00000F0A0F800211046FFF7C8FC00F0DCF992
:1040B000002807D105494FF080500860BFF34F8FAB
:1040C000BFF36F8F10BD00003400002004ED00E04E
:1040D00070B50546FFF75EFF254C05B92568281D1C
:1040E000FFF713FF58B9E86A224A00EB800152F843
:1040F000211021B901218140206988432061A86AEB
:1041000018B105F11800FFF700FF606A401C6062FB
:104110002068854208D11748291DC830FFF72EFFB7
:104120006068401C606007E0A068401EA0602846F0
:10413000FFF724FDFFF7F4FDFFF74CFF606900284F
:1041400014D02068854211D1206B38B1502080F303
:104150001188BFF34F8FBFF36F8FFEE706494FF013
:1041600080500860BFF34F8FBFF36F8F70BD0000AA
:10417000340000209802002004ED00E01CB5154832
:104180000024CDE900402346802213A1144800F00A
:10419000D9F8012809D0401C1AD1502080F3118889
:1041A000BFF34F8FBFF36F8FFEE7502080F311886E
:1041B000BFF34F8FBFF36F8F06484FF0FF312C389E
:1041C000816201214161C460BDE81C4000F040B83B
:1041D0001CBD00006000002049444C450000000068
:1041E000DD3B00080248016B491C01637047000079
:1041F000340000201448016B11B10121C1617047E6
:104200000021C1610169B1FA81F1C1F11F0101EB26
:1042100081020E4951F822306BB101EB820101F1AC
:1042200008034A6852684A609A4201D152684A605B
:10423000D16801607047502080F31188BFF34F8F21
:10424000BFF36F8FFEE700003400002098020020CB
:104250001CB537480168374A914207D1502080F396
:104260001188BFF34F8FBFF36F8FFEE700683149AE
:10427000491E884207D1502080F31188BFF34F8F29
:10428000BFF36F8FFEE72C4908780190FF2008707C
:1042900008788DF800009DF800009DF8002000F0DF
:1042A000F000904207D0502080F31188BFF34F8F69
:1042B000BFF36F8FFEE79DF80000204C00F0500028
:1042C00020700720A06005E09DF8002052008DF8C6
:1042D0000020401E9DF800201206F5D4A06003289F
:1042E00007D0502080F31188BFF34F8FBFF36F8F3B
:1042F000FEE74FF44070A060019808700C48203031
:10430000016841F470010160016841F07041016091
:10431000FFF7A6FE00206060FBF7D2FF08480168A7
:1043200041F040410160FBF7B7FF00201CBD0000D9
:1043300000ED00E071C20F4100E400E090000020B9
:1043400034EF00E02DE9FF5F8346DDE90E879946F3
:1043500016468A469000FFF707FD05001AD0542044
:10436000FFF702FD040012D025630021CDE90241D0
:10437000CDE900874B46324651465846FFF75EFC72
:104380002046FFF793FB012004B0BDE8F09F2846CC
:10439000FFF734FE4FF0FF30F6E700002DE9F04163
:1043A0002F4C0026206B28B1A069401CA06130462C
:1043B000BDE8F081E5686D1CE56013D1606B0068B5
:1043C00038B1502080F31188BFF34F8FBFF36F8F48
:1043D000FEE7606BA16B6163A063206A401C2062F2
:1043E000FFF79EFCA06ADFF87C80854209D3606BF2
:1043F0000068A0B1606BC068C7687868854211D258
:10440000A0622068C06A00EB800158F821000128F2
:1044100000D90126E0690028C9D00126C7E74FF07E
:10442000FF30EDE7381DFFF770FDB86A18B107F1EE
:104430001800FFF76AFDF96A0120226988401043DD
:10444000206101EB810108EB8100391DFFF796FD2A
:10445000F86A2168C96A8842C9D30126C7E7000003
:1044600034000020980200202DE9F0472C4D002454
:104470002746286B38B1FFF78DFD286B401E286357
:10448000286B40B146E0502080F31188BFF34F8F76
:10449000BFF36F8FFEE7A968224E0120D1B3A6F1CA
:1044A000B40980463068E8B1F068C46804F11800C7
:1044B000FFF72BFD201DFFF728FDE06A2A6908FAA7
:1044C00000F11143296100EB800109EB8100211DFE
:1044D000FFF754FDE06A2968C96A8842E2D3C5F84B
:1044E0001C80DFE70CB1FFF71BFCAC6944B146460A
:1044F000FFF754FF00B1EE61641EF9D10020A861FE
:10450000E86938B10849012738070860BFF34F8FC1
:10451000BFF36F8FFFF75EFD3846BDE8F087000000
:10452000340000204C03002004ED00E04FF0407008
:10453000E1EE100A7047000074450008B13400082D
:104540000000000000000000000100000001020364
:1045500004050607080C1014182030400000000065
:104560000000000001020304060708090000000023
:104570000102030464656661756C745461736B00B9
:10458000A0450008000000201001000014020008EF
:10459000B046000810010020606C000030020008E6
:1045A00000000000100000000100000000000000FA
:1045B00000000000000000000000000000000000FB
:1045C00001000000000000000000000000000000EA
:1045D0000024F400000000000000000000000000C3
:1045E00000000000000000000000000000000000CB
:1045F00000000000000000000000000000000000BB
:1046000000000000000000000000000000000000AA
:10461000000000000000000000000000000000009A
:10462000000000000000000000000000000000008A
:1046300000000000AAAAAAAA0000000000000000D2
:104640000000000000001200000000000000000058
:104650000000000000000000120000000000000048
:104660000000000000000000000012000000000038
:10467000000000000000000000000000000000003A
:10468000000000000000000000000000000000002A
:1046900000000000000000000000000065000000B5
:1046A0000000000000000000000000000001000009
:04000005080001D915
:00000001FF
